{
  "_format": "hh-sol-artifact-1",
  "contractName": "DonationCampaign",
  "sourceName": "contracts/DonationCampaign.sol",
  "abi": [
    {
      "inputs": [
        {
          "internalType": "string",
          "name": "_title",
          "type": "string"
        },
        {
          "internalType": "string",
          "name": "_description",
          "type": "string"
        },
        {
          "internalType": "uint256",
          "name": "_goal",
          "type": "uint256"
        }
      ],
      "stateMutability": "nonpayable",
      "type": "constructor"
    },
    {
      "anonymous": false,
      "inputs": [
        {
          "indexed": false,
          "internalType": "bool",
          "name": "successful",
          "type": "bool"
        }
      ],
      "name": "CampaignFinalized",
      "type": "event"
    },
    {
      "anonymous": false,
      "inputs": [
        {
          "indexed": true,
          "internalType": "address",
          "name": "donor",
          "type": "address"
        },
        {
          "indexed": false,
          "internalType": "uint256",
          "name": "amount",
          "type": "uint256"
        }
      ],
      "name": "DonationReceived",
      "type": "event"
    },
    {
      "anonymous": false,
      "inputs": [
        {
          "indexed": true,
          "internalType": "address",
          "name": "owner",
          "type": "address"
        },
        {
          "indexed": false,
          "internalType": "uint256",
          "name": "amount",
          "type": "uint256"
        }
      ],
      "name": "FundsWithdrawn",
      "type": "event"
    },
    {
      "anonymous": false,
      "inputs": [
        {
          "indexed": true,
          "internalType": "address",
          "name": "donor",
          "type": "address"
        },
        {
          "indexed": false,
          "internalType": "uint256",
          "name": "amount",
          "type": "uint256"
        }
      ],
      "name": "RefundIssued",
      "type": "event"
    },
    {
      "stateMutability": "payable",
      "type": "fallback"
    },
    {
      "inputs": [
        {
          "internalType": "address",
          "name": "",
          "type": "address"
        }
      ],
      "name": "contributions",
      "outputs": [
        {
          "internalType": "uint256",
          "name": "",
          "type": "uint256"
        }
      ],
      "stateMutability": "view",
      "type": "function"
    },
    {
      "inputs": [],
      "name": "createdAt",
      "outputs": [
        {
          "internalType": "uint256",
          "name": "",
          "type": "uint256"
        }
      ],
      "stateMutability": "view",
      "type": "function"
    },
    {
      "inputs": [],
      "name": "description",
      "outputs": [
        {
          "internalType": "string",
          "name": "",
          "type": "string"
        }
      ],
      "stateMutability": "view",
      "type": "function"
    },
    {
      "inputs": [],
      "name": "donate",
      "outputs": [],
      "stateMutability": "payable",
      "type": "function"
    },
    {
      "inputs": [],
      "name": "finalizeCampaign",
      "outputs": [],
      "stateMutability": "nonpayable",
      "type": "function"
    },
    {
      "inputs": [],
      "name": "finalized",
      "outputs": [
        {
          "internalType": "bool",
          "name": "",
          "type": "bool"
        }
      ],
      "stateMutability": "view",
      "type": "function"
    },
    {
      "inputs": [],
      "name": "getDetails",
      "outputs": [
        {
          "internalType": "string",
          "name": "_title",
          "type": "string"
        },
        {
          "internalType": "string",
          "name": "_description",
          "type": "string"
        },
        {
          "internalType": "address",
          "name": "_owner",
          "type": "address"
        },
        {
          "internalType": "uint256",
          "name": "_goal",
          "type": "uint256"
        },
        {
          "internalType": "uint256",
          "name": "_raised",
          "type": "uint256"
        },
        {
          "internalType": "uint256",
          "name": "_createdAt",
          "type": "uint256"
        },
        {
          "internalType": "bool",
          "name": "_finalized",
          "type": "bool"
        }
      ],
      "stateMutability": "view",
      "type": "function"
    },
    {
      "inputs": [],
      "name": "goal",
      "outputs": [
        {
          "internalType": "uint256",
          "name": "",
          "type": "uint256"
        }
      ],
      "stateMutability": "view",
      "type": "function"
    },
    {
      "inputs": [],
      "name": "owner",
      "outputs": [
        {
          "internalType": "address",
          "name": "",
          "type": "address"
        }
      ],
      "stateMutability": "view",
      "type": "function"
    },
    {
      "inputs": [],
      "name": "raised",
      "outputs": [
        {
          "internalType": "uint256",
          "name": "",
          "type": "uint256"
        }
      ],
      "stateMutability": "view",
      "type": "function"
    },
    {
      "inputs": [],
      "name": "refund",
      "outputs": [],
      "stateMutability": "nonpayable",
      "type": "function"
    },
    {
      "inputs": [],
      "name": "title",
      "outputs": [
        {
          "internalType": "string",
          "name": "",
          "type": "string"
        }
      ],
      "stateMutability": "view",
      "type": "function"
    },
    {
      "inputs": [],
      "name": "withdraw",
      "outputs": [],
      "stateMutability": "nonpayable",
      "type": "function"
    },
    {
      "inputs": [],
      "name": "withdrawn",
      "outputs": [
        {
          "internalType": "bool",
          "name": "",
          "type": "bool"
        }
      ],
      "stateMutability": "view",
      "type": "function"
    },
    {
      "stateMutability": "payable",
      "type": "receive"
    }
  ],
  "bytecode": "0x608060405234801561001057600080fd5b50604051611b6f380380611b6f833981810160405281019061003291906102cd565b60008111610075576040517f08c379a000000000000000000000000000000000000000000000000000000000815260040161006c906103b5565b60405180910390fd5b826000908161008491906105ec565b50816001908161009491906105ec565b508060038190555033600260006101000a81548173ffffffffffffffffffffffffffffffffffffffff021916908373ffffffffffffffffffffffffffffffffffffffff160217905550426005819055506000600660006101000a81548160ff0219169083151502179055506000600660016101000a81548160ff0219169083151502179055505050506106be565b6000604051905090565b600080fd5b600080fd5b600080fd5b600080fd5b6000601f19601f8301169050919050565b7f4e487b7100000000000000000000000000000000000000000000000000000000600052604160045260246000fd5b61018982610140565b810181811067ffffffffffffffff821117156101a8576101a7610151565b5b80604052505050565b60006101bb610122565b90506101c78282610180565b919050565b600067ffffffffffffffff8211156101e7576101e6610151565b5b6101f082610140565b9050602081019050919050565b60005b8381101561021b578082015181840152602081019050610200565b60008484015250505050565b600061023a610235846101cc565b6101b1565b9050828152602081018484840111156102565761025561013b565b5b6102618482856101fd565b509392505050565b600082601f83011261027e5761027d610136565b5b815161028e848260208601610227565b91505092915050565b6000819050919050565b6102aa81610297565b81146102b557600080fd5b50565b6000815190506102c7816102a1565b92915050565b6000806000606084860312156102e6576102e561012c565b5b600084015167ffffffffffffffff81111561030457610303610131565b5b61031086828701610269565b935050602084015167ffffffffffffffff81111561033157610330610131565b5b61033d86828701610269565b925050604061034e868287016102b8565b9150509250925092565b600082825260208201905092915050565b7f50726167756c20747265627569652073612066696520706f7a69746976000000600082015250565b600061039f601d83610358565b91506103aa82610369565b602082019050919050565b600060208201905081810360008301526103ce81610392565b9050919050565b600081519050919050565b7f4e487b7100000000000000000000000000000000000000000000000000000000600052602260045260246000fd5b6000600282049050600182168061042757607f821691505b60208210810361043a576104396103e0565b5b50919050565b60008190508160005260206000209050919050565b60006020601f8301049050919050565b600082821b905092915050565b6000600883026104a27fffffffffffffffffffffffffffffffffffffffffffffffffffffffffffffffff82610465565b6104ac8683610465565b95508019841693508086168417925050509392505050565b6000819050919050565b60006104e96104e46104df84610297565b6104c4565b610297565b9050919050565b6000819050919050565b610503836104ce565b61051761050f826104f0565b848454610472565b825550505050565b600090565b61052c61051f565b6105378184846104fa565b505050565b5b8181101561055b57610550600082610524565b60018101905061053d565b5050565b601f8211156105a05761057181610440565b61057a84610455565b81016020851015610589578190505b61059d61059585610455565b83018261053c565b50505b505050565b600082821c905092915050565b60006105c3600019846008026105a5565b1980831691505092915050565b60006105dc83836105b2565b9150826002028217905092915050565b6105f5826103d5565b67ffffffffffffffff81111561060e5761060d610151565b5b610618825461040f565b61062382828561055f565b600060209050601f8311600181146106565760008415610644578287015190505b61064e85826105d0565b8655506106b6565b601f19841661066486610440565b60005b8281101561068c57848901518255600182019150602085019450602081019050610667565b868310156106a957848901516106a5601f8916826105b2565b8355505b6001600288020188555050505b505050505050565b6114a2806106cd6000396000f3fe6080604052600436106100e15760003560e01c8063a1211bc01161007f578063cf09e0d011610059578063cf09e0d01461027e578063ed88c68e146102a9578063f0ea4bfc146102b3578063fbbf93a0146102de576100f0565b8063a1211bc014610211578063b3f05b9714610228578063c80ec52214610253576100f0565b80634a79d50c116100bb5780634a79d50c14610179578063590e1ae3146101a45780637284e416146101bb5780638da5cb5b146101e6576100f0565b80633ccfd60b146100fa578063401938831461011157806342e94c901461013c576100f0565b366100f0576100ee61030f565b005b6100f861030f565b005b34801561010657600080fd5b5061010f610461565b005b34801561011d57600080fd5b506101266106d3565b6040516101339190610d31565b60405180910390f35b34801561014857600080fd5b50610163600480360381019061015e9190610daf565b6106d9565b6040516101709190610d31565b60405180910390f35b34801561018557600080fd5b5061018e6106f1565b60405161019b9190610e6c565b60405180910390f35b3480156101b057600080fd5b506101b961077f565b005b3480156101c757600080fd5b506101d0610978565b6040516101dd9190610e6c565b60405180910390f35b3480156101f257600080fd5b506101fb610a06565b6040516102089190610e9d565b60405180910390f35b34801561021d57600080fd5b50610226610a2c565b005b34801561023457600080fd5b5061023d610b6d565b60405161024a9190610ed3565b60405180910390f35b34801561025f57600080fd5b50610268610b80565b6040516102759190610ed3565b60405180910390f35b34801561028a57600080fd5b50610293610b93565b6040516102a09190610d31565b60405180910390f35b6102b161030f565b005b3480156102bf57600080fd5b506102c8610b99565b6040516102d59190610d31565b60405180910390f35b3480156102ea57600080fd5b506102f3610b9f565b6040516103069796959493929190610eee565b60405180910390f35b600660009054906101000a900460ff161561035f576040517f08c379a000000000000000000000000000000000000000000000000000000000815260040161035690610fb7565b60405180910390fd5b600034116103a2576040517f08c379a000000000000000000000000000000000000000000000000000000000815260040161039990611049565b60405180910390fd5b34600760003373ffffffffffffffffffffffffffffffffffffffff1673ffffffffffffffffffffffffffffffffffffffff16815260200190815260200160002060008282546103f19190611098565b92505081905550346004600082825461040a9190611098565b925050819055503373ffffffffffffffffffffffffffffffffffffffff167f264f630d9efa0d07053a31163641d9fcc0adafc9d9e76f1c37c2ce3a558d2c52346040516104579190610d31565b60405180910390a2565b600260009054906101000a900473ffffffffffffffffffffffffffffffffffffffff1673ffffffffffffffffffffffffffffffffffffffff163373ffffffffffffffffffffffffffffffffffffffff16146104f1576040517f08c379a00000000000000000000000000000000000000000000000000000000081526004016104e890611118565b60405180910390fd5b600660009054906101000a900460ff16610540576040517f08c379a000000000000000000000000000000000000000000000000000000000815260040161053790611184565b60405180910390fd5b6003546004541015610587576040517f08c379a000000000000000000000000000000000000000000000000000000000815260040161057e906111f0565b60405180910390fd5b600660019054906101000a900460ff16156105d7576040517f08c379a00000000000000000000000000000000000000000000000000000000081526004016105ce9061125c565b60405180910390fd5b6001600660016101000a81548160ff0219169083151502179055506000479050600260009054906101000a900473ffffffffffffffffffffffffffffffffffffffff1673ffffffffffffffffffffffffffffffffffffffff166108fc829081150290604051600060405180830381858888f1935050505015801561065f573d6000803e3d6000fd5b50600260009054906101000a900473ffffffffffffffffffffffffffffffffffffffff1673ffffffffffffffffffffffffffffffffffffffff167feaff4b37086828766ad3268786972c0cd24259d4c87a80f9d3963a3c3d999b0d826040516106c89190610d31565b60405180910390a250565b60035481565b60076020528060005260406000206000915090505481565b600080546106fe906112ab565b80601f016020809104026020016040519081016040528092919081815260200182805461072a906112ab565b80156107775780601f1061074c57610100808354040283529160200191610777565b820191906000526020600020905b81548152906001019060200180831161075a57829003601f168201915b505050505081565b600660009054906101000a900460ff166107ce576040517f08c379a00000000000000000000000000000000000000000000000000000000081526004016107c590611184565b60405180910390fd5b60035460045410610814576040517f08c379a000000000000000000000000000000000000000000000000000000000815260040161080b9061134e565b60405180910390fd5b6000600760003373ffffffffffffffffffffffffffffffffffffffff1673ffffffffffffffffffffffffffffffffffffffff1681526020019081526020016000205490506000811161089b576040517f08c379a0000000000000000000000000000000000000000000000000000000008152600401610892906113e0565b60405180910390fd5b6000600760003373ffffffffffffffffffffffffffffffffffffffff1673ffffffffffffffffffffffffffffffffffffffff168152602001908152602001600020819055503373ffffffffffffffffffffffffffffffffffffffff166108fc829081150290604051600060405180830381858888f19350505050158015610926573d6000803e3d6000fd5b503373ffffffffffffffffffffffffffffffffffffffff167fa171b6942063c6f2800ce40a780edce37baa2b618571b11eedd1e69e626e7d768260405161096d9190610d31565b60405180910390a250565b60018054610985906112ab565b80601f01602080910402602001604051908101604052809291908181526020018280546109b1906112ab565b80156109fe5780601f106109d3576101008083540402835291602001916109fe565b820191906000526020600020905b8154815290600101906020018083116109e157829003601f168201915b505050505081565b600260009054906101000a900473ffffffffffffffffffffffffffffffffffffffff1681565b600260009054906101000a900473ffffffffffffffffffffffffffffffffffffffff1673ffffffffffffffffffffffffffffffffffffffff163373ffffffffffffffffffffffffffffffffffffffff1614610abc576040517f08c379a0000000000000000000000000000000000000000000000000000000008152600401610ab390611118565b60405180910390fd5b600660009054906101000a900460ff1615610b0c576040517f08c379a0000000000000000000000000000000000000000000000000000000008152600401610b039061144c565b60405180910390fd5b6001600660006101000a81548160ff0219169083151502179055506000600354600454101590507f170c266b6c51c5ee0e58a9ff23f733b295ff6c6b28f3c61a2ed3dc74a0902f2d81604051610b629190610ed3565b60405180910390a150565b600660009054906101000a900460ff1681565b600660019054906101000a900460ff1681565b60055481565b60045481565b6060806000806000806000806001600260009054906101000a900473ffffffffffffffffffffffffffffffffffffffff16600354600454600554600660009054906101000a900460ff16868054610bf5906112ab565b80601f0160208091040260200160405190810160405280929190818152602001828054610c21906112ab565b8015610c6e5780601f10610c4357610100808354040283529160200191610c6e565b820191906000526020600020905b815481529060010190602001808311610c5157829003601f168201915b50505050509650858054610c81906112ab565b80601f0160208091040260200160405190810160405280929190818152602001828054610cad906112ab565b8015610cfa5780601f10610ccf57610100808354040283529160200191610cfa565b820191906000526020600020905b815481529060010190602001808311610cdd57829003601f168201915b50505050509550965096509650965096509650965090919293949596565b6000819050919050565b610d2b81610d18565b82525050565b6000602082019050610d466000830184610d22565b92915050565b600080fd5b600073ffffffffffffffffffffffffffffffffffffffff82169050919050565b6000610d7c82610d51565b9050919050565b610d8c81610d71565b8114610d9757600080fd5b50565b600081359050610da981610d83565b92915050565b600060208284031215610dc557610dc4610d4c565b5b6000610dd384828501610d9a565b91505092915050565b600081519050919050565b600082825260208201905092915050565b60005b83811015610e16578082015181840152602081019050610dfb565b60008484015250505050565b6000601f19601f8301169050919050565b6000610e3e82610ddc565b610e488185610de7565b9350610e58818560208601610df8565b610e6181610e22565b840191505092915050565b60006020820190508181036000830152610e868184610e33565b905092915050565b610e9781610d71565b82525050565b6000602082019050610eb26000830184610e8e565b92915050565b60008115159050919050565b610ecd81610eb8565b82525050565b6000602082019050610ee86000830184610ec4565b92915050565b600060e0820190508181036000830152610f08818a610e33565b90508181036020830152610f1c8189610e33565b9050610f2b6040830188610e8e565b610f386060830187610d22565b610f456080830186610d22565b610f5260a0830185610d22565b610f5f60c0830184610ec4565b98975050505050505050565b7f43616d70616e6961206120666f73742066696e616c697a617461000000000000600082015250565b6000610fa1601a83610de7565b9150610fac82610f6b565b602082019050919050565b60006020820190508181036000830152610fd081610f94565b9050919050565b7f446f6e61746961207472656275696520736120666965206d6169206d6172652060008201527f6465636174207a65726f00000000000000000000000000000000000000000000602082015250565b6000611033602a83610de7565b915061103e82610fd7565b604082019050919050565b6000602082019050818103600083015261106281611026565b9050919050565b7f4e487b7100000000000000000000000000000000000000000000000000000000600052601160045260246000fd5b60006110a382610d18565b91506110ae83610d18565b92508282019050808211156110c6576110c5611069565b5b92915050565b7f446f61722070726f70726965746172756c20706f617465206170656c61000000600082015250565b6000611102601d83610de7565b915061110d826110cc565b602082019050919050565b60006020820190508181036000830152611131816110f5565b9050919050565b7f43616d70616e6961206e7520657374652066696e616c697a6174610000000000600082015250565b600061116e601b83610de7565b915061117982611138565b602082019050919050565b6000602082019050818103600083015261119d81611161565b9050919050565b7f5461726765742d756c206e75206120666f7374206174696e7300000000000000600082015250565b60006111da601983610de7565b91506111e5826111a4565b602082019050919050565b60006020820190508181036000830152611209816111cd565b9050919050565b7f466f6e647572696c6520617520666f73742064656a6120726574726173650000600082015250565b6000611246601e83610de7565b915061125182611210565b602082019050919050565b6000602082019050818103600083015261127581611239565b9050919050565b7f4e487b7100000000000000000000000000000000000000000000000000000000600052602260045260246000fd5b600060028204905060018216806112c357607f821691505b6020821081036112d6576112d561127c565b5b50919050565b7f5461726765742d756c206120666f7374206174696e732c206e7520736520706f60008201527f7420666163652072616d62757273617269000000000000000000000000000000602082015250565b6000611338603183610de7565b9150611343826112dc565b604082019050919050565b600060208201905081810360008301526113678161132b565b9050919050565b7f4e752065786973746120636f6e74726962757469692064652072616d6275727360008201527f6174000000000000000000000000000000000000000000000000000000000000602082015250565b60006113ca602283610de7565b91506113d58261136e565b604082019050919050565b600060208201905081810360008301526113f9816113bd565b9050919050565b7f43616d70616e696120657374652064656a612066696e616c697a617461000000600082015250565b6000611436601d83610de7565b915061144182611400565b602082019050919050565b6000602082019050818103600083015261146581611429565b905091905056fea264697066735822122012f49012605d804fddb1a4a428cf1d53219142e7e1daf4f6767eb0507735eec364736f6c634300081c0033",
  "linkReferences": {},
  "deployedLinkReferences": {}
}