{
  "_format": "hh-sol-artifact-1",
  "contractName": "DonationCampaignFactory",
  "sourceName": "contracts/DonationCampaignFactory.sol",
  "abi": [
    {
      "inputs": [],
      "stateMutability": "nonpayable",
      "type": "constructor"
    },
    {
      "anonymous": false,
      "inputs": [
        {
          "indexed": true,
          "internalType": "uint256",
          "name": "proposalId",
          "type": "uint256"
        },
        {
          "indexed": false,
          "internalType": "address",
          "name": "contractAddress",
          "type": "address"
        }
      ],
      "name": "CampaignAccepted",
      "type": "event"
    },
    {
      "anonymous": false,
      "inputs": [
        {
          "indexed": true,
          "internalType": "uint256",
          "name": "proposalId",
          "type": "uint256"
        },
        {
          "indexed": false,
          "internalType": "address",
          "name": "proposer",
          "type": "address"
        }
      ],
      "name": "CampaignProposed",
      "type": "event"
    },
    {
      "anonymous": false,
      "inputs": [
        {
          "indexed": true,
          "internalType": "uint256",
          "name": "proposalId",
          "type": "uint256"
        }
      ],
      "name": "CampaignRejected",
      "type": "event"
    },
    {
      "inputs": [
        {
          "internalType": "uint256",
          "name": "_id",
          "type": "uint256"
        }
      ],
      "name": "acceptProposal",
      "outputs": [],
      "stateMutability": "nonpayable",
      "type": "function"
    },
    {
      "inputs": [],
      "name": "admin",
      "outputs": [
        {
          "internalType": "address",
          "name": "",
          "type": "address"
        }
      ],
      "stateMutability": "view",
      "type": "function"
    },
    {
      "inputs": [
        {
          "internalType": "uint256",
          "name": "",
          "type": "uint256"
        }
      ],
      "name": "campaigns",
      "outputs": [
        {
          "internalType": "contract DonationCampaign",
          "name": "",
          "type": "address"
        }
      ],
      "stateMutability": "view",
      "type": "function"
    },
    {
      "inputs": [
        {
          "internalType": "uint256",
          "name": "_index",
          "type": "uint256"
        }
      ],
      "name": "getCampaignAddress",
      "outputs": [
        {
          "internalType": "address",
          "name": "",
          "type": "address"
        }
      ],
      "stateMutability": "view",
      "type": "function"
    },
    {
      "inputs": [],
      "name": "getCampaignCount",
      "outputs": [
        {
          "internalType": "uint256",
          "name": "",
          "type": "uint256"
        }
      ],
      "stateMutability": "view",
      "type": "function"
    },
    {
      "inputs": [],
      "name": "getCampaigns",
      "outputs": [
        {
          "internalType": "contract DonationCampaign[]",
          "name": "",
          "type": "address[]"
        }
      ],
      "stateMutability": "view",
      "type": "function"
    },
    {
      "inputs": [
        {
          "internalType": "uint256",
          "name": "_id",
          "type": "uint256"
        }
      ],
      "name": "getProposal",
      "outputs": [
        {
          "internalType": "address",
          "name": "proposer",
          "type": "address"
        },
        {
          "internalType": "string",
          "name": "title",
          "type": "string"
        },
        {
          "internalType": "string",
          "name": "description",
          "type": "string"
        },
        {
          "internalType": "uint256",
          "name": "goal",
          "type": "uint256"
        },
        {
          "internalType": "bool",
          "name": "approved",
          "type": "bool"
        },
        {
          "internalType": "bool",
          "name": "rejected",
          "type": "bool"
        }
      ],
      "stateMutability": "view",
      "type": "function"
    },
    {
      "inputs": [],
      "name": "getProposalCount",
      "outputs": [
        {
          "internalType": "uint256",
          "name": "",
          "type": "uint256"
        }
      ],
      "stateMutability": "view",
      "type": "function"
    },
    {
      "inputs": [],
      "name": "getProposals",
      "outputs": [
        {
          "components": [
            {
              "internalType": "address",
              "name": "proposer",
              "type": "address"
            },
            {
              "internalType": "string",
              "name": "title",
              "type": "string"
            },
            {
              "internalType": "string",
              "name": "description",
              "type": "string"
            },
            {
              "internalType": "uint256",
              "name": "goal",
              "type": "uint256"
            },
            {
              "internalType": "bool",
              "name": "approved",
              "type": "bool"
            },
            {
              "internalType": "bool",
              "name": "rejected",
              "type": "bool"
            }
          ],
          "internalType": "struct DonationCampaignFactory.Proposal[]",
          "name": "",
          "type": "tuple[]"
        }
      ],
      "stateMutability": "view",
      "type": "function"
    },
    {
      "inputs": [
        {
          "internalType": "uint256",
          "name": "",
          "type": "uint256"
        }
      ],
      "name": "proposals",
      "outputs": [
        {
          "internalType": "address",
          "name": "proposer",
          "type": "address"
        },
        {
          "internalType": "string",
          "name": "title",
          "type": "string"
        },
        {
          "internalType": "string",
          "name": "description",
          "type": "string"
        },
        {
          "internalType": "uint256",
          "name": "goal",
          "type": "uint256"
        },
        {
          "internalType": "bool",
          "name": "approved",
          "type": "bool"
        },
        {
          "internalType": "bool",
          "name": "rejected",
          "type": "bool"
        }
      ],
      "stateMutability": "view",
      "type": "function"
    },
    {
      "inputs": [
        {
          "internalType": "string",
          "name": "_title",
          "type": "string"
        },
        {
          "internalType": "string",
          "name": "_description",
          "type": "string"
        },
        {
          "internalType": "uint256",
          "name": "_goal",
          "type": "uint256"
        }
      ],
      "name": "proposeCampaign",
      "outputs": [],
      "stateMutability": "nonpayable",
      "type": "function"
    },
    {
      "inputs": [
        {
          "internalType": "uint256",
          "name": "_id",
          "type": "uint256"
        }
      ],
      "name": "rejectProposal",
      "outputs": [],
      "stateMutability": "nonpayable",
      "type": "function"
    }
  ],
  "bytecode": "0x6080604052348015600f57600080fd5b50336000806101000a81548173ffffffffffffffffffffffffffffffffffffffff021916908373ffffffffffffffffffffffffffffffffffffffff160217905550614e598061005f6000396000f3fe608060405234801561001057600080fd5b50600436106100b45760003560e01c8063bc28d87811610071578063bc28d87814610194578063c08cc02d146101b0578063c7f758a8146101ce578063d2905e4714610203578063e1231ec51461021f578063f851a4401461024f576100b4565b8063013cf08b146100b9578063141961bc146100ee57806360c5cc3a1461011e57806362564c481461013a5780636caa921814610158578063a6b0363314610176575b600080fd5b6100d360048036038101906100ce9190611012565b61026d565b6040516100e59695949392919061113a565b60405180910390f35b61010860048036038101906101039190611012565b610403565b6040516101159190611208565b60405180910390f35b61013860048036038101906101339190611012565b610442565b005b6101426106d3565b60405161014f91906113ec565b60405180910390f35b6101606108ec565b60405161016d919061140e565b60405180910390f35b61017e6108f9565b60405161018b91906114e7565b60405180910390f35b6101ae60048036038101906101a99190611012565b610987565b005b6101b8610b3d565b6040516101c5919061140e565b60405180910390f35b6101e860048036038101906101e39190611012565b610b4a565b6040516101fa9695949392919061113a565b60405180910390f35b61021d6004803603810190610218919061163e565b610d45565b005b61023960048036038101906102349190611012565b610f08565b60405161024691906116c9565b60405180910390f35b610257610f97565b60405161026491906116c9565b60405180910390f35b6001818154811061027d57600080fd5b90600052602060002090600502016000915090508060000160009054906101000a900473ffffffffffffffffffffffffffffffffffffffff16908060010180546102c690611713565b80601f01602080910402602001604051908101604052809291908181526020018280546102f290611713565b801561033f5780601f106103145761010080835404028352916020019161033f565b820191906000526020600020905b81548152906001019060200180831161032257829003601f168201915b50505050509080600201805461035490611713565b80601f016020809104026020016040519081016040528092919081815260200182805461038090611713565b80156103cd5780601f106103a2576101008083540402835291602001916103cd565b820191906000526020600020905b8154815290600101906020018083116103b057829003601f168201915b5050505050908060030154908060040160009054906101000a900460ff16908060040160019054906101000a900460ff16905086565b6002818154811061041357600080fd5b906000526020600020016000915054906101000a900473ffffffffffffffffffffffffffffffffffffffff1681565b60008054906101000a900473ffffffffffffffffffffffffffffffffffffffff1673ffffffffffffffffffffffffffffffffffffffff163373ffffffffffffffffffffffffffffffffffffffff16146104d0576040517f08c379a00000000000000000000000000000000000000000000000000000000081526004016104c790611790565b60405180910390fd5b6001805490508110610517576040517f08c379a000000000000000000000000000000000000000000000000000000000815260040161050e906117fc565b60405180910390fd5b60006001828154811061052d5761052c61181c565b5b906000526020600020906005020190508060040160009054906101000a900460ff1615801561056b57508060040160019054906101000a900460ff16155b6105aa576040517f08c379a00000000000000000000000000000000000000000000000000000000081526004016105a190611897565b60405180910390fd5b600081600101826002018360000160009054906101000a900473ffffffffffffffffffffffffffffffffffffffff1684600301546040516105ea90610fbb565b6105f79493929190611950565b604051809103906000f080158015610613573d6000803e3d6000fd5b5090506002819080600181540180825580915050600190039060005260206000200160009091909190916101000a81548173ffffffffffffffffffffffffffffffffffffffff021916908373ffffffffffffffffffffffffffffffffffffffff16021790555060018260040160006101000a81548160ff021916908315150217905550827f7145cba14b5acc8eccaa45e172fd347a0a11b8952bfff9af0dd5d9aac9ae0665826040516106c691906116c9565b60405180910390a2505050565b60606001805480602002602001604051908101604052809291908181526020016000905b828210156108e357838290600052602060002090600502016040518060c00160405290816000820160009054906101000a900473ffffffffffffffffffffffffffffffffffffffff1673ffffffffffffffffffffffffffffffffffffffff1673ffffffffffffffffffffffffffffffffffffffff16815260200160018201805461078090611713565b80601f01602080910402602001604051908101604052809291908181526020018280546107ac90611713565b80156107f95780601f106107ce576101008083540402835291602001916107f9565b820191906000526020600020905b8154815290600101906020018083116107dc57829003601f168201915b5050505050815260200160028201805461081290611713565b80601f016020809104026020016040519081016040528092919081815260200182805461083e90611713565b801561088b5780601f106108605761010080835404028352916020019161088b565b820191906000526020600020905b81548152906001019060200180831161086e57829003601f168201915b50505050508152602001600382015481526020016004820160009054906101000a900460ff161515151581526020016004820160019054906101000a900460ff161515151581525050815260200190600101906106f7565b50505050905090565b6000600280549050905090565b6060600280548060200260200160405190810160405280929190818152602001828054801561097d57602002820191906000526020600020905b8160009054906101000a900473ffffffffffffffffffffffffffffffffffffffff1673ffffffffffffffffffffffffffffffffffffffff1681526020019060010190808311610933575b5050505050905090565b60008054906101000a900473ffffffffffffffffffffffffffffffffffffffff1673ffffffffffffffffffffffffffffffffffffffff163373ffffffffffffffffffffffffffffffffffffffff1614610a15576040517f08c379a0000000000000000000000000000000000000000000000000000000008152600401610a0c90611790565b60405180910390fd5b6001805490508110610a5c576040517f08c379a0000000000000000000000000000000000000000000000000000000008152600401610a53906117fc565b60405180910390fd5b600060018281548110610a7257610a7161181c565b5b906000526020600020906005020190508060040160009054906101000a900460ff16158015610ab057508060040160019054906101000a900460ff16155b610aef576040517f08c379a0000000000000000000000000000000000000000000000000000000008152600401610ae690611897565b60405180910390fd5b60018160040160016101000a81548160ff021916908315150217905550817fc3f451c8eba813b83ed73bf2904347fff970b9ca06227a6507f7e9cd971ff11360405160405180910390a25050565b6000600180549050905090565b600060608060008060006001805490508710610b9b576040517f08c379a0000000000000000000000000000000000000000000000000000000008152600401610b92906117fc565b60405180910390fd5b600060018881548110610bb157610bb061181c565b5b906000526020600020906005020190508060000160009054906101000a900473ffffffffffffffffffffffffffffffffffffffff16816001018260020183600301548460040160009054906101000a900460ff168560040160019054906101000a900460ff16848054610c2390611713565b80601f0160208091040260200160405190810160405280929190818152602001828054610c4f90611713565b8015610c9c5780601f10610c7157610100808354040283529160200191610c9c565b820191906000526020600020905b815481529060010190602001808311610c7f57829003601f168201915b50505050509450838054610caf90611713565b80601f0160208091040260200160405190810160405280929190818152602001828054610cdb90611713565b8015610d285780601f10610cfd57610100808354040283529160200191610d28565b820191906000526020600020905b815481529060010190602001808311610d0b57829003601f168201915b505050505093509650965096509650965096505091939550919395565b60008111610d88576040517f08c379a0000000000000000000000000000000000000000000000000000000008152600401610d7f906119ef565b60405180910390fd5b60016040518060c001604052803373ffffffffffffffffffffffffffffffffffffffff16815260200185815260200184815260200183815260200160001515815260200160001515815250908060018154018082558091505060019003906000526020600020906005020160009091909190915060008201518160000160006101000a81548173ffffffffffffffffffffffffffffffffffffffff021916908373ffffffffffffffffffffffffffffffffffffffff1602179055506020820151816001019081610e589190611b9c565b506040820151816002019081610e6e9190611b9c565b506060820151816003015560808201518160040160006101000a81548160ff02191690831515021790555060a08201518160040160016101000a81548160ff021916908315150217905550505060018080549050610ecc9190611c9d565b7f9314e6c84e6a50484b259fd4f65b3bdbd6a84508dfb051c39e1897269adf023733604051610efb91906116c9565b60405180910390a2505050565b60006002805490508210610f51576040517f08c379a0000000000000000000000000000000000000000000000000000000008152600401610f4890611d1d565b60405180910390fd5b60028281548110610f6557610f6461181c565b5b9060005260206000200160009054906101000a900473ffffffffffffffffffffffffffffffffffffffff169050919050565b60008054906101000a900473ffffffffffffffffffffffffffffffffffffffff1681565b6130e680611d3e83390190565b6000604051905090565b600080fd5b600080fd5b6000819050919050565b610fef81610fdc565b8114610ffa57600080fd5b50565b60008135905061100c81610fe6565b92915050565b60006020828403121561102857611027610fd2565b5b600061103684828501610ffd565b91505092915050565b600073ffffffffffffffffffffffffffffffffffffffff82169050919050565b600061106a8261103f565b9050919050565b61107a8161105f565b82525050565b600081519050919050565b600082825260208201905092915050565b60005b838110156110ba57808201518184015260208101905061109f565b60008484015250505050565b6000601f19601f8301169050919050565b60006110e282611080565b6110ec818561108b565b93506110fc81856020860161109c565b611105816110c6565b840191505092915050565b61111981610fdc565b82525050565b60008115159050919050565b6111348161111f565b82525050565b600060c08201905061114f6000830189611071565b818103602083015261116181886110d7565b9050818103604083015261117581876110d7565b90506111846060830186611110565b611191608083018561112b565b61119e60a083018461112b565b979650505050505050565b6000819050919050565b60006111ce6111c96111c48461103f565b6111a9565b61103f565b9050919050565b60006111e0826111b3565b9050919050565b60006111f2826111d5565b9050919050565b611202816111e7565b82525050565b600060208201905061121d60008301846111f9565b92915050565b600081519050919050565b600082825260208201905092915050565b6000819050602082019050919050565b6112588161105f565b82525050565b600082825260208201905092915050565b600061127a82611080565b611284818561125e565b935061129481856020860161109c565b61129d816110c6565b840191505092915050565b6112b181610fdc565b82525050565b6112c08161111f565b82525050565b600060c0830160008301516112de600086018261124f565b50602083015184820360208601526112f6828261126f565b91505060408301518482036040860152611310828261126f565b915050606083015161132560608601826112a8565b50608083015161133860808601826112b7565b5060a083015161134b60a08601826112b7565b508091505092915050565b600061136283836112c6565b905092915050565b6000602082019050919050565b600061138282611223565b61138c818561122e565b93508360208202850161139e8561123f565b8060005b858110156113da57848403895281516113bb8582611356565b94506113c68361136a565b925060208a019950506001810190506113a2565b50829750879550505050505092915050565b600060208201905081810360008301526114068184611377565b905092915050565b60006020820190506114236000830184611110565b92915050565b600081519050919050565b600082825260208201905092915050565b6000819050602082019050919050565b61145e816111e7565b82525050565b60006114708383611455565b60208301905092915050565b6000602082019050919050565b600061149482611429565b61149e8185611434565b93506114a983611445565b8060005b838110156114da5781516114c18882611464565b97506114cc8361147c565b9250506001810190506114ad565b5085935050505092915050565b600060208201905081810360008301526115018184611489565b905092915050565b600080fd5b600080fd5b7f4e487b7100000000000000000000000000000000000000000000000000000000600052604160045260246000fd5b61154b826110c6565b810181811067ffffffffffffffff8211171561156a57611569611513565b5b80604052505050565b600061157d610fc8565b90506115898282611542565b919050565b600067ffffffffffffffff8211156115a9576115a8611513565b5b6115b2826110c6565b9050602081019050919050565b82818337600083830152505050565b60006115e16115dc8461158e565b611573565b9050828152602081018484840111156115fd576115fc61150e565b5b6116088482856115bf565b509392505050565b600082601f83011261162557611624611509565b5b81356116358482602086016115ce565b91505092915050565b60008060006060848603121561165757611656610fd2565b5b600084013567ffffffffffffffff81111561167557611674610fd7565b5b61168186828701611610565b935050602084013567ffffffffffffffff8111156116a2576116a1610fd7565b5b6116ae86828701611610565b92505060406116bf86828701610ffd565b9150509250925092565b60006020820190506116de6000830184611071565b92915050565b7f4e487b7100000000000000000000000000000000000000000000000000000000600052602260045260246000fd5b6000600282049050600182168061172b57607f821691505b60208210810361173e5761173d6116e4565b5b50919050565b7f446f61722061646d696e756c20706f6174652066616365206173746100000000600082015250565b600061177a601c8361108b565b915061178582611744565b602082019050919050565b600060208201905081810360008301526117a98161176d565b9050919050565b7f49442070726f70756e65726520696e76616c6964000000000000000000000000600082015250565b60006117e660148361108b565b91506117f1826117b0565b602082019050919050565b60006020820190508181036000830152611815816117d9565b9050919050565b7f4e487b7100000000000000000000000000000000000000000000000000000000600052603260045260246000fd5b7f44656a612070726f636573617400000000000000000000000000000000000000600082015250565b6000611881600d8361108b565b915061188c8261184b565b602082019050919050565b600060208201905081810360008301526118b081611874565b9050919050565b60008190508160005260206000209050919050565b600081546118d981611713565b6118e3818661108b565b945060018216600081146118fe576001811461191457611947565b60ff198316865281151560200286019350611947565b61191d856118b7565b60005b8381101561193f57815481890152600182019150602081019050611920565b808801955050505b50505092915050565b6000608082019050818103600083015261196a81876118cc565b9050818103602083015261197e81866118cc565b905061198d6040830185611071565b61199a6060830184611110565b95945050505050565b7f53756d6120747265627569652073612066696520706f7a697469766100000000600082015250565b60006119d9601c8361108b565b91506119e4826119a3565b602082019050919050565b60006020820190508181036000830152611a08816119cc565b9050919050565b60006020601f8301049050919050565b600082821b905092915050565b600060088302611a5c7fffffffffffffffffffffffffffffffffffffffffffffffffffffffffffffffff82611a1f565b611a668683611a1f565b95508019841693508086168417925050509392505050565b6000611a99611a94611a8f84610fdc565b6111a9565b610fdc565b9050919050565b6000819050919050565b611ab383611a7e565b611ac7611abf82611aa0565b848454611a2c565b825550505050565b600090565b611adc611acf565b611ae7818484611aaa565b505050565b5b81811015611b0b57611b00600082611ad4565b600181019050611aed565b5050565b601f821115611b5057611b21816118b7565b611b2a84611a0f565b81016020851015611b39578190505b611b4d611b4585611a0f565b830182611aec565b50505b505050565b600082821c905092915050565b6000611b7360001984600802611b55565b1980831691505092915050565b6000611b8c8383611b62565b9150826002028217905092915050565b611ba582611080565b67ffffffffffffffff811115611bbe57611bbd611513565b5b611bc88254611713565b611bd3828285611b0f565b600060209050601f831160018114611c065760008415611bf4578287015190505b611bfe8582611b80565b865550611c66565b601f198416611c14866118b7565b60005b82811015611c3c57848901518255600182019150602085019450602081019050611c17565b86831015611c595784890151611c55601f891682611b62565b8355505b6001600288020188555050505b505050505050565b7f4e487b7100000000000000000000000000000000000000000000000000000000600052601160045260246000fd5b6000611ca882610fdc565b9150611cb383610fdc565b9250828203905081811115611ccb57611cca611c6e565b5b92915050565b7f496e64657820696e76616c696400000000000000000000000000000000000000600082015250565b6000611d07600d8361108b565b9150611d1282611cd1565b602082019050919050565b60006020820190508181036000830152611d3681611cfa565b905091905056fe608060405234801561001057600080fd5b506040516130e63803806130e6833981810160405281019061003291906103cb565b60008111610075576040517f08c379a000000000000000000000000000000000000000000000000000000000815260040161006c906104ed565b60405180910390fd5b60008451116100b9576040517f08c379a00000000000000000000000000000000000000000000000000000000081526004016100b090610559565b60405180910390fd5b600073ffffffffffffffffffffffffffffffffffffffff168273ffffffffffffffffffffffffffffffffffffffff1603610128576040517f08c379a000000000000000000000000000000000000000000000000000000000815260040161011f906105c5565b60405180910390fd5b836001908161013791906107fc565b50826002908161014791906107fc565b50816000806101000a81548173ffffffffffffffffffffffffffffffffffffffff021916908373ffffffffffffffffffffffffffffffffffffffff160217905550806003819055506000600481905550426005819055506000600660006101000a81548160ff021916908315150217905550505050506108ce565b6000604051905090565b600080fd5b600080fd5b600080fd5b600080fd5b6000601f19601f8301169050919050565b7f4e487b7100000000000000000000000000000000000000000000000000000000600052604160045260246000fd5b610229826101e0565b810181811067ffffffffffffffff82111715610248576102476101f1565b5b80604052505050565b600061025b6101c2565b90506102678282610220565b919050565b600067ffffffffffffffff821115610287576102866101f1565b5b610290826101e0565b9050602081019050919050565b60005b838110156102bb5780820151818401526020810190506102a0565b60008484015250505050565b60006102da6102d58461026c565b610251565b9050828152602081018484840111156102f6576102f56101db565b5b61030184828561029d565b509392505050565b600082601f83011261031e5761031d6101d6565b5b815161032e8482602086016102c7565b91505092915050565b600073ffffffffffffffffffffffffffffffffffffffff82169050919050565b600061036282610337565b9050919050565b61037281610357565b811461037d57600080fd5b50565b60008151905061038f81610369565b92915050565b6000819050919050565b6103a881610395565b81146103b357600080fd5b50565b6000815190506103c58161039f565b92915050565b600080600080608085870312156103e5576103e46101cc565b5b600085015167ffffffffffffffff811115610403576104026101d1565b5b61040f87828801610309565b945050602085015167ffffffffffffffff8111156104305761042f6101d1565b5b61043c87828801610309565b935050604061044d87828801610380565b925050606061045e878288016103b6565b91505092959194509250565b600082825260208201905092915050565b7f4f62696563746976756c207472656275696520736120666965206d6169206d6160008201527f7265206465636174203000000000000000000000000000000000000000000000602082015250565b60006104d7602a8361046a565b91506104e28261047b565b604082019050919050565b60006020820190508181036000830152610506816104ca565b9050919050565b7f5469746c756c206e7520706f61746520666920676f6c00000000000000000000600082015250565b600061054360168361046a565b915061054e8261050d565b602082019050919050565b6000602082019050818103600083015261057281610536565b9050919050565b7f4164726573612063726561746f72756c7569206e7520706f6174652066692030600082015250565b60006105af60208361046a565b91506105ba82610579565b602082019050919050565b600060208201905081810360008301526105de816105a2565b9050919050565b600081519050919050565b7f4e487b7100000000000000000000000000000000000000000000000000000000600052602260045260246000fd5b6000600282049050600182168061063757607f821691505b60208210810361064a576106496105f0565b5b50919050565b60008190508160005260206000209050919050565b60006020601f8301049050919050565b600082821b905092915050565b6000600883026106b27fffffffffffffffffffffffffffffffffffffffffffffffffffffffffffffffff82610675565b6106bc8683610675565b95508019841693508086168417925050509392505050565b6000819050919050565b60006106f96106f46106ef84610395565b6106d4565b610395565b9050919050565b6000819050919050565b610713836106de565b61072761071f82610700565b848454610682565b825550505050565b600090565b61073c61072f565b61074781848461070a565b505050565b5b8181101561076b57610760600082610734565b60018101905061074d565b5050565b601f8211156107b05761078181610650565b61078a84610665565b81016020851015610799578190505b6107ad6107a585610665565b83018261074c565b50505b505050565b600082821c905092915050565b60006107d3600019846008026107b5565b1980831691505092915050565b60006107ec83836107c2565b9150826002028217905092915050565b610805826105e5565b67ffffffffffffffff81111561081e5761081d6101f1565b5b610828825461061f565b61083382828561076f565b600060209050601f8311600181146108665760008415610854578287015190505b61085e85826107e0565b8655506108c6565b601f19841661087486610650565b60005b8281101561089c57848901518255600182019150602085019450602081019050610877565b868310156108b957848901516108b5601f8916826107c2565b8355505b6001600288020188555050505b505050505050565b612809806108dd6000396000f3fe6080604052600436106101185760003560e01c8063a1211bc0116100a0578063ef07a81f11610064578063ef07a81f1461042c578063f0ea4bfc1461046d578063f4374aea14610498578063f8626af8146104d5578063fbbf93a01461051657610200565b8063a1211bc01461037d578063b3f05b9714610394578063c93527d8146103bf578063cf09e0d0146103ea578063db2e21bc1461041557610200565b806338a59a07116100e757806338a59a07146102a257806340193883146102d15780634a79d50c146102fc57806371e28126146103275780637284e4161461035257610200565b806302d05d3f1461020557806312065fe0146102305780631653441c1461025b5780631931136c1461027757610200565b3661020057600660009054906101000a900460ff161561016d576040517f08c379a00000000000000000000000000000000000000000000000000000000081526004016101649061187e565b60405180910390fd5b600034116101b0576040517f08c379a00000000000000000000000000000000000000000000000000000000081526004016101a790611910565b60405180910390fd5b6101fe6040518060400160405280600681526020017f416e6f6e696d000000000000000000000000000000000000000000000000000081525060405180602001604052806000815250610547565b005b600080fd5b34801561021157600080fd5b5061021a61074f565b6040516102279190611971565b60405180910390f35b34801561023c57600080fd5b50610245610773565b60405161025291906119a5565b60405180910390f35b61027560048036038101906102709190611b1a565b61077b565b005b34801561028357600080fd5b5061028c61081c565b60405161029991906119a5565b60405180910390f35b3480156102ae57600080fd5b506102b7610852565b6040516102c8959493929190611e4f565b60405180910390f35b3480156102dd57600080fd5b506102e6610cbb565b6040516102f391906119a5565b60405180910390f35b34801561030857600080fd5b50610311610cc1565b60405161031e9190611efe565b60405180910390f35b34801561033357600080fd5b5061033c610d4f565b6040516103499190611f3b565b60405180910390f35b34801561035e57600080fd5b50610367610dce565b6040516103749190611efe565b60405180910390f35b34801561038957600080fd5b50610392610e5c565b005b3480156103a057600080fd5b506103a96110a9565b6040516103b69190611f3b565b60405180910390f35b3480156103cb57600080fd5b506103d46110bc565b6040516103e191906119a5565b60405180910390f35b3480156103f657600080fd5b506103ff6110c9565b60405161040c91906119a5565b60405180910390f35b34801561042157600080fd5b5061042a6110cf565b005b34801561043857600080fd5b50610453600480360381019061044e9190611f82565b6112da565b604051610464959493929190611faf565b60405180910390f35b34801561047957600080fd5b50610482611515565b60405161048f91906119a5565b60405180910390f35b3480156104a457600080fd5b506104bf60048036038101906104ba919061203c565b61151b565b6040516104cc91906119a5565b60405180910390f35b3480156104e157600080fd5b506104fc60048036038101906104f79190611f82565b611533565b60405161050d959493929190611faf565b60405180910390f35b34801561052257600080fd5b5061052b6116a9565b60405161053e9796959493929190612069565b60405180910390f35b60008083511161058c576040518060400160405280600681526020017f416e6f6e696d000000000000000000000000000000000000000000000000000081525061058e565b825b905060006040518060a001604052803373ffffffffffffffffffffffffffffffffffffffff168152602001348152602001838152602001848152602001428152509050600781908060018154018082558091505060019003906000526020600020906005020160009091909190915060008201518160000160006101000a81548173ffffffffffffffffffffffffffffffffffffffff021916908373ffffffffffffffffffffffffffffffffffffffff16021790555060208201518160010155604082015181600201908161066391906122f2565b50606082015181600301908161067991906122f2565b5060808201518160040155505034600860003373ffffffffffffffffffffffffffffffffffffffff1673ffffffffffffffffffffffffffffffffffffffff16815260200190815260200160002060008282546106d591906123f3565b9250508190555034600460008282546106ee91906123f3565b925050819055503373ffffffffffffffffffffffffffffffffffffffff167f7bb9a95a063ac2decc66632337067989dec93c5602888bef33692d28f0bf91be348486426040516107419493929190612427565b60405180910390a250505050565b60008054906101000a900473ffffffffffffffffffffffffffffffffffffffff1681565b600047905090565b600660009054906101000a900460ff16156107cb576040517f08c379a00000000000000000000000000000000000000000000000000000000081526004016107c29061187e565b60405180910390fd5b6000341161080e576040517f08c379a000000000000000000000000000000000000000000000000000000000815260040161080590611910565b60405180910390fd5b6108188282610547565b5050565b60008060035403610830576000905061084f565b6003546064600454610842919061247a565b61084c91906124eb565b90505b90565b6060806060806060600060078054905090508067ffffffffffffffff81111561087e5761087d6119ef565b5b6040519080825280602002602001820160405280156108ac5781602001602082028036833780820191505090505b5095508067ffffffffffffffff8111156108c9576108c86119ef565b5b6040519080825280602002602001820160405280156108f75781602001602082028036833780820191505090505b5094508067ffffffffffffffff811115610914576109136119ef565b5b60405190808252806020026020018201604052801561094757816020015b60608152602001906001900390816109325790505b5093508067ffffffffffffffff811115610964576109636119ef565b5b60405190808252806020026020018201604052801561099757816020015b60608152602001906001900390816109825790505b5092508067ffffffffffffffff8111156109b4576109b36119ef565b5b6040519080825280602002602001820160405280156109e25781602001602082028036833780820191505090505b50915060005b81811015610cb25760078181548110610a0457610a0361251c565b5b906000526020600020906005020160000160009054906101000a900473ffffffffffffffffffffffffffffffffffffffff16878281518110610a4957610a4861251c565b5b602002602001019073ffffffffffffffffffffffffffffffffffffffff16908173ffffffffffffffffffffffffffffffffffffffff168152505060078181548110610a9757610a9661251c565b5b906000526020600020906005020160010154868281518110610abc57610abb61251c565b5b60200260200101818152505060078181548110610adc57610adb61251c565b5b90600052602060002090600502016002018054610af890612115565b80601f0160208091040260200160405190810160405280929190818152602001828054610b2490612115565b8015610b715780601f10610b4657610100808354040283529160200191610b71565b820191906000526020600020905b815481529060010190602001808311610b5457829003601f168201915b5050505050858281518110610b8957610b8861251c565b5b602002602001018190525060078181548110610ba857610ba761251c565b5b90600052602060002090600502016003018054610bc490612115565b80601f0160208091040260200160405190810160405280929190818152602001828054610bf090612115565b8015610c3d5780601f10610c1257610100808354040283529160200191610c3d565b820191906000526020600020905b815481529060010190602001808311610c2057829003601f168201915b5050505050848281518110610c5557610c5461251c565b5b602002602001018190525060078181548110610c7457610c7361251c565b5b906000526020600020906005020160040154838281518110610c9957610c9861251c565b5b60200260200101818152505080806001019150506109e8565b50509091929394565b60035481565b60018054610cce90612115565b80601f0160208091040260200160405190810160405280929190818152602001828054610cfa90612115565b8015610d475780601f10610d1c57610100808354040283529160200191610d47565b820191906000526020600020905b815481529060010190602001808311610d2a57829003601f168201915b505050505081565b6000600660009054906101000a900460ff16158015610d72575060035460045410155b8015610dc9575060008054906101000a900473ffffffffffffffffffffffffffffffffffffffff1673ffffffffffffffffffffffffffffffffffffffff163373ffffffffffffffffffffffffffffffffffffffff16145b905090565b60028054610ddb90612115565b80601f0160208091040260200160405190810160405280929190818152602001828054610e0790612115565b8015610e545780601f10610e2957610100808354040283529160200191610e54565b820191906000526020600020905b815481529060010190602001808311610e3757829003601f168201915b505050505081565b60008054906101000a900473ffffffffffffffffffffffffffffffffffffffff1673ffffffffffffffffffffffffffffffffffffffff163373ffffffffffffffffffffffffffffffffffffffff1614610eea576040517f08c379a0000000000000000000000000000000000000000000000000000000008152600401610ee1906125bd565b60405180910390fd5b600660009054906101000a900460ff1615610f3a576040517f08c379a0000000000000000000000000000000000000000000000000000000008152600401610f319061187e565b60405180910390fd5b600060045411610f7f576040517f08c379a0000000000000000000000000000000000000000000000000000000008152600401610f7690612629565b60405180910390fd5b6001600660006101000a81548160ff021916908315150217905550600047905060008060009054906101000a900473ffffffffffffffffffffffffffffffffffffffff1673ffffffffffffffffffffffffffffffffffffffff1682604051610fe69061267a565b60006040518083038185875af1925050503d8060008114611023576040519150601f19603f3d011682016040523d82523d6000602084013e611028565b606091505b505090508061106c576040517f08c379a0000000000000000000000000000000000000000000000000000000008152600401611063906126db565b60405180910390fd5b7f79e19121aa255cb066a0c009cb90dc7e4847878c99372edec7374527541c181460045460405161109d91906119a5565b60405180910390a15050565b600660009054906101000a900460ff1681565b6000600780549050905090565b60055481565b60008054906101000a900473ffffffffffffffffffffffffffffffffffffffff1673ffffffffffffffffffffffffffffffffffffffff163373ffffffffffffffffffffffffffffffffffffffff161461115d576040517f08c379a0000000000000000000000000000000000000000000000000000000008152600401611154906125bd565b60405180910390fd5b6301e1338060055461116f91906123f3565b42116111b0576040517f08c379a00000000000000000000000000000000000000000000000000000000081526004016111a790612747565b60405180910390fd5b6001600660006101000a81548160ff021916908315150217905550600047905060008060009054906101000a900473ffffffffffffffffffffffffffffffffffffffff1673ffffffffffffffffffffffffffffffffffffffff16826040516112179061267a565b60006040518083038185875af1925050503d8060008114611254576040519150601f19603f3d011682016040523d82523d6000602084013e611259565b606091505b505090508061129d576040517f08c379a0000000000000000000000000000000000000000000000000000000008152600401611294906126db565b60405180910390fd5b7f79e19121aa255cb066a0c009cb90dc7e4847878c99372edec7374527541c18146004546040516112ce91906119a5565b60405180910390a15050565b60008060608060006007805490508610611329576040517f08c379a0000000000000000000000000000000000000000000000000000000008152600401611320906127b3565b60405180910390fd5b60006007878154811061133f5761133e61251c565b5b90600052602060002090600502016040518060a00160405290816000820160009054906101000a900473ffffffffffffffffffffffffffffffffffffffff1673ffffffffffffffffffffffffffffffffffffffff1673ffffffffffffffffffffffffffffffffffffffff168152602001600182015481526020016002820180546113c890612115565b80601f01602080910402602001604051908101604052809291908181526020018280546113f490612115565b80156114415780601f1061141657610100808354040283529160200191611441565b820191906000526020600020905b81548152906001019060200180831161142457829003601f168201915b5050505050815260200160038201805461145a90612115565b80601f016020809104026020016040519081016040528092919081815260200182805461148690612115565b80156114d35780601f106114a8576101008083540402835291602001916114d3565b820191906000526020600020905b8154815290600101906020018083116114b657829003601f168201915b50505050508152602001600482015481525050905080600001518160200151826040015183606001518460800151955095509550955095505091939590929450565b60045481565b60086020528060005260406000206000915090505481565b6007818154811061154357600080fd5b90600052602060002090600502016000915090508060000160009054906101000a900473ffffffffffffffffffffffffffffffffffffffff169080600101549080600201805461159290612115565b80601f01602080910402602001604051908101604052809291908181526020018280546115be90612115565b801561160b5780601f106115e05761010080835404028352916020019161160b565b820191906000526020600020905b8154815290600101906020018083116115ee57829003601f168201915b50505050509080600301805461162090612115565b80601f016020809104026020016040519081016040528092919081815260200182805461164c90612115565b80156116995780601f1061166e57610100808354040283529160200191611699565b820191906000526020600020905b81548152906001019060200180831161167c57829003601f168201915b5050505050908060040154905085565b60608060008060008060006001600260008054906101000a900473ffffffffffffffffffffffffffffffffffffffff16600354600454600554600660009054906101000a900460ff168680546116fe90612115565b80601f016020809104026020016040519081016040528092919081815260200182805461172a90612115565b80156117775780601f1061174c57610100808354040283529160200191611777565b820191906000526020600020905b81548152906001019060200180831161175a57829003601f168201915b5050505050965085805461178a90612115565b80601f01602080910402602001604051908101604052809291908181526020018280546117b690612115565b80156118035780601f106117d857610100808354040283529160200191611803565b820191906000526020600020905b8154815290600101906020018083116117e657829003601f168201915b50505050509550965096509650965096509650965090919293949596565b600082825260208201905092915050565b7f43616d70616e696120657374652064656a612066696e616c697a617461000000600082015250565b6000611868601d83611821565b915061187382611832565b602082019050919050565b600060208201905081810360008301526118978161185b565b9050919050565b7f53756d6120646f6e6174696569207472656275696520736120666965206d616960008201527f206d617265206465636174203000000000000000000000000000000000000000602082015250565b60006118fa602d83611821565b91506119058261189e565b604082019050919050565b60006020820190508181036000830152611929816118ed565b9050919050565b600073ffffffffffffffffffffffffffffffffffffffff82169050919050565b600061195b82611930565b9050919050565b61196b81611950565b82525050565b60006020820190506119866000830184611962565b92915050565b6000819050919050565b61199f8161198c565b82525050565b60006020820190506119ba6000830184611996565b92915050565b6000604051905090565b600080fd5b600080fd5b600080fd5b600080fd5b6000601f19601f8301169050919050565b7f4e487b7100000000000000000000000000000000000000000000000000000000600052604160045260246000fd5b611a27826119de565b810181811067ffffffffffffffff82111715611a4657611a456119ef565b5b80604052505050565b6000611a596119c0565b9050611a658282611a1e565b919050565b600067ffffffffffffffff821115611a8557611a846119ef565b5b611a8e826119de565b9050602081019050919050565b82818337600083830152505050565b6000611abd611ab884611a6a565b611a4f565b905082815260208101848484011115611ad957611ad86119d9565b5b611ae4848285611a9b565b509392505050565b600082601f830112611b0157611b006119d4565b5b8135611b11848260208601611aaa565b91505092915050565b60008060408385031215611b3157611b306119ca565b5b600083013567ffffffffffffffff811115611b4f57611b4e6119cf565b5b611b5b85828601611aec565b925050602083013567ffffffffffffffff811115611b7c57611b7b6119cf565b5b611b8885828601611aec565b9150509250929050565b600081519050919050565b600082825260208201905092915050565b6000819050602082019050919050565b611bc781611950565b82525050565b6000611bd98383611bbe565b60208301905092915050565b6000602082019050919050565b6000611bfd82611b92565b611c078185611b9d565b9350611c1283611bae565b8060005b83811015611c43578151611c2a8882611bcd565b9750611c3583611be5565b925050600181019050611c16565b5085935050505092915050565b600081519050919050565b600082825260208201905092915050565b6000819050602082019050919050565b611c858161198c565b82525050565b6000611c978383611c7c565b60208301905092915050565b6000602082019050919050565b6000611cbb82611c50565b611cc58185611c5b565b9350611cd083611c6c565b8060005b83811015611d01578151611ce88882611c8b565b9750611cf383611ca3565b925050600181019050611cd4565b5085935050505092915050565b600081519050919050565b600082825260208201905092915050565b6000819050602082019050919050565b600081519050919050565b600082825260208201905092915050565b60005b83811015611d74578082015181840152602081019050611d59565b60008484015250505050565b6000611d8b82611d3a565b611d958185611d45565b9350611da5818560208601611d56565b611dae816119de565b840191505092915050565b6000611dc58383611d80565b905092915050565b6000602082019050919050565b6000611de582611d0e565b611def8185611d19565b935083602082028501611e0185611d2a565b8060005b85811015611e3d5784840389528151611e1e8582611db9565b9450611e2983611dcd565b925060208a01995050600181019050611e05565b50829750879550505050505092915050565b600060a0820190508181036000830152611e698188611bf2565b90508181036020830152611e7d8187611cb0565b90508181036040830152611e918186611dda565b90508181036060830152611ea58185611dda565b90508181036080830152611eb98184611cb0565b90509695505050505050565b6000611ed082611d3a565b611eda8185611821565b9350611eea818560208601611d56565b611ef3816119de565b840191505092915050565b60006020820190508181036000830152611f188184611ec5565b905092915050565b60008115159050919050565b611f3581611f20565b82525050565b6000602082019050611f506000830184611f2c565b92915050565b611f5f8161198c565b8114611f6a57600080fd5b50565b600081359050611f7c81611f56565b92915050565b600060208284031215611f9857611f976119ca565b5b6000611fa684828501611f6d565b91505092915050565b600060a082019050611fc46000830188611962565b611fd16020830187611996565b8181036040830152611fe38186611ec5565b90508181036060830152611ff78185611ec5565b90506120066080830184611996565b9695505050505050565b61201981611950565b811461202457600080fd5b50565b60008135905061203681612010565b92915050565b600060208284031215612052576120516119ca565b5b600061206084828501612027565b91505092915050565b600060e0820190508181036000830152612083818a611ec5565b905081810360208301526120978189611ec5565b90506120a66040830188611962565b6120b36060830187611996565b6120c06080830186611996565b6120cd60a0830185611996565b6120da60c0830184611f2c565b98975050505050505050565b7f4e487b7100000000000000000000000000000000000000000000000000000000600052602260045260246000fd5b6000600282049050600182168061212d57607f821691505b6020821081036121405761213f6120e6565b5b50919050565b60008190508160005260206000209050919050565b60006020601f8301049050919050565b600082821b905092915050565b6000600883026121a87fffffffffffffffffffffffffffffffffffffffffffffffffffffffffffffffff8261216b565b6121b2868361216b565b95508019841693508086168417925050509392505050565b6000819050919050565b60006121ef6121ea6121e58461198c565b6121ca565b61198c565b9050919050565b6000819050919050565b612209836121d4565b61221d612215826121f6565b848454612178565b825550505050565b600090565b612232612225565b61223d818484612200565b505050565b5b818110156122615761225660008261222a565b600181019050612243565b5050565b601f8211156122a65761227781612146565b6122808461215b565b8101602085101561228f578190505b6122a361229b8561215b565b830182612242565b50505b505050565b600082821c905092915050565b60006122c9600019846008026122ab565b1980831691505092915050565b60006122e283836122b8565b9150826002028217905092915050565b6122fb82611d3a565b67ffffffffffffffff811115612314576123136119ef565b5b61231e8254612115565b612329828285612265565b600060209050601f83116001811461235c576000841561234a578287015190505b61235485826122d6565b8655506123bc565b601f19841661236a86612146565b60005b828110156123925784890151825560018201915060208501945060208101905061236d565b868310156123af57848901516123ab601f8916826122b8565b8355505b6001600288020188555050505b505050505050565b7f4e487b7100000000000000000000000000000000000000000000000000000000600052601160045260246000fd5b60006123fe8261198c565b91506124098361198c565b9250828201905080821115612421576124206123c4565b5b92915050565b600060808201905061243c6000830187611996565b818103602083015261244e8186611ec5565b905081810360408301526124628185611ec5565b90506124716060830184611996565b95945050505050565b60006124858261198c565b91506124908361198c565b925082820261249e8161198c565b915082820484148315176124b5576124b46123c4565b5b5092915050565b7f4e487b7100000000000000000000000000000000000000000000000000000000600052601260045260246000fd5b60006124f68261198c565b91506125018361198c565b925082612511576125106124bc565b5b828204905092915050565b7f4e487b7100000000000000000000000000000000000000000000000000000000600052603260045260246000fd5b7f446f61722063726561746f72756c20706f61746520657865637574612061636560008201527f617374612061637469756e650000000000000000000000000000000000000000602082015250565b60006125a7602c83611821565b91506125b28261254b565b604082019050919050565b600060208201905081810360008301526125d68161259a565b9050919050565b7f4e752065786973746120666f6e64757269206465207265747261730000000000600082015250565b6000612613601b83611821565b915061261e826125dd565b602082019050919050565b6000602082019050818103600083015261264281612606565b9050919050565b600081905092915050565b50565b6000612664600083612649565b915061266f82612654565b600082019050919050565b600061268582612657565b9150819050919050565b7f5472616e73666572756c20612065737561740000000000000000000000000000600082015250565b60006126c5601283611821565b91506126d08261268f565b602082019050919050565b600060208201905081810360008301526126f4816126b8565b9050919050565b7f43616d70616e69612065737465207072656120726563656e7461000000000000600082015250565b6000612731601a83611821565b915061273c826126fb565b602082019050919050565b6000602082019050818103600083015261276081612724565b9050919050565b7f496e64657820696e76616c696400000000000000000000000000000000000000600082015250565b600061279d600d83611821565b91506127a882612767565b602082019050919050565b600060208201905081810360008301526127cc81612790565b905091905056fea264697066735822122016230e3478146cf71509119bd9c1daff7d807d1194b11631764edcfc598d08c264736f6c634300081c0033a2646970667358221220220439d275f68fefeb1a6730f8f5ae7b9c73f92b66f4285f3fc5f0a03fa255da64736f6c634300081c0033",
  "linkReferences": {},
  "deployedLinkReferences": {}
}