{
  "_format": "hh-sol-artifact-1",
  "contractName": "DonationCampaignFactory",
  "sourceName": "contracts/DonationCampaignFactory.sol",
  "abi": [
    {
      "inputs": [],
      "stateMutability": "nonpayable",
      "type": "constructor"
    },
    {
      "anonymous": false,
      "inputs": [
        {
          "indexed": true,
          "internalType": "uint256",
          "name": "proposalId",
          "type": "uint256"
        },
        {
          "indexed": false,
          "internalType": "address",
          "name": "contractAddress",
          "type": "address"
        }
      ],
      "name": "CampaignAccepted",
      "type": "event"
    },
    {
      "anonymous": false,
      "inputs": [
        {
          "indexed": true,
          "internalType": "uint256",
          "name": "proposalId",
          "type": "uint256"
        },
        {
          "indexed": false,
          "internalType": "address",
          "name": "proposer",
          "type": "address"
        }
      ],
      "name": "CampaignProposed",
      "type": "event"
    },
    {
      "anonymous": false,
      "inputs": [
        {
          "indexed": true,
          "internalType": "uint256",
          "name": "proposalId",
          "type": "uint256"
        }
      ],
      "name": "CampaignRejected",
      "type": "event"
    },
    {
      "inputs": [
        {
          "internalType": "uint256",
          "name": "_id",
          "type": "uint256"
        }
      ],
      "name": "acceptProposal",
      "outputs": [],
      "stateMutability": "nonpayable",
      "type": "function"
    },
    {
      "inputs": [],
      "name": "admin",
      "outputs": [
        {
          "internalType": "address",
          "name": "",
          "type": "address"
        }
      ],
      "stateMutability": "view",
      "type": "function"
    },
    {
      "inputs": [
        {
          "internalType": "uint256",
          "name": "",
          "type": "uint256"
        }
      ],
      "name": "campaigns",
      "outputs": [
        {
          "internalType": "contract DonationCampaign",
          "name": "",
          "type": "address"
        }
      ],
      "stateMutability": "view",
      "type": "function"
    },
    {
      "inputs": [
        {
          "internalType": "uint256",
          "name": "_index",
          "type": "uint256"
        }
      ],
      "name": "getCampaignAddress",
      "outputs": [
        {
          "internalType": "address",
          "name": "",
          "type": "address"
        }
      ],
      "stateMutability": "view",
      "type": "function"
    },
    {
      "inputs": [],
      "name": "getCampaignCount",
      "outputs": [
        {
          "internalType": "uint256",
          "name": "",
          "type": "uint256"
        }
      ],
      "stateMutability": "view",
      "type": "function"
    },
    {
      "inputs": [],
      "name": "getCampaigns",
      "outputs": [
        {
          "internalType": "contract DonationCampaign[]",
          "name": "",
          "type": "address[]"
        }
      ],
      "stateMutability": "view",
      "type": "function"
    },
    {
      "inputs": [],
      "name": "getProposals",
      "outputs": [
        {
          "components": [
            {
              "internalType": "address",
              "name": "proposer",
              "type": "address"
            },
            {
              "internalType": "string",
              "name": "title",
              "type": "string"
            },
            {
              "internalType": "string",
              "name": "description",
              "type": "string"
            },
            {
              "internalType": "uint256",
              "name": "goal",
              "type": "uint256"
            },
            {
              "internalType": "bool",
              "name": "approved",
              "type": "bool"
            },
            {
              "internalType": "bool",
              "name": "rejected",
              "type": "bool"
            }
          ],
          "internalType": "struct DonationCampaignFactory.Proposal[]",
          "name": "",
          "type": "tuple[]"
        }
      ],
      "stateMutability": "view",
      "type": "function"
    },
    {
      "inputs": [
        {
          "internalType": "uint256",
          "name": "",
          "type": "uint256"
        }
      ],
      "name": "proposals",
      "outputs": [
        {
          "internalType": "address",
          "name": "proposer",
          "type": "address"
        },
        {
          "internalType": "string",
          "name": "title",
          "type": "string"
        },
        {
          "internalType": "string",
          "name": "description",
          "type": "string"
        },
        {
          "internalType": "uint256",
          "name": "goal",
          "type": "uint256"
        },
        {
          "internalType": "bool",
          "name": "approved",
          "type": "bool"
        },
        {
          "internalType": "bool",
          "name": "rejected",
          "type": "bool"
        }
      ],
      "stateMutability": "view",
      "type": "function"
    },
    {
      "inputs": [
        {
          "internalType": "string",
          "name": "_title",
          "type": "string"
        },
        {
          "internalType": "string",
          "name": "_description",
          "type": "string"
        },
        {
          "internalType": "uint256",
          "name": "_goal",
          "type": "uint256"
        }
      ],
      "name": "proposeCampaign",
      "outputs": [],
      "stateMutability": "nonpayable",
      "type": "function"
    },
    {
      "inputs": [
        {
          "internalType": "uint256",
          "name": "_id",
          "type": "uint256"
        }
      ],
      "name": "rejectProposal",
      "outputs": [],
      "stateMutability": "nonpayable",
      "type": "function"
    }
  ],
  "bytecode": "0x6080604052348015600f57600080fd5b50336000806101000a81548173ffffffffffffffffffffffffffffffffffffffff021916908373ffffffffffffffffffffffffffffffffffffffff1602179055506134908061005f6000396000f3fe608060405234801561001057600080fd5b506004361061009e5760003560e01c8063a6b0363311610066578063a6b0363314610160578063bc28d8781461017e578063d2905e471461019a578063e1231ec5146101b6578063f851a440146101e65761009e565b8063013cf08b146100a3578063141961bc146100d857806360c5cc3a1461010857806362564c48146101245780636caa921814610142575b600080fd5b6100bd60048036038101906100b89190610ca6565b610204565b6040516100cf96959493929190610dce565b60405180910390f35b6100f260048036038101906100ed9190610ca6565b61039a565b6040516100ff9190610e9c565b60405180910390f35b610122600480360381019061011d9190610ca6565b6103d9565b005b61012c6105fd565b6040516101399190611080565b60405180910390f35b61014a610816565b60405161015791906110a2565b60405180910390f35b610168610823565b604051610175919061117b565b60405180910390f35b61019860048036038101906101939190610ca6565b6108b1565b005b6101b460048036038101906101af91906112d2565b610a20565b005b6101d060048036038101906101cb9190610ca6565b610be3565b6040516101dd919061135d565b60405180910390f35b6101ee610c2b565b6040516101fb919061135d565b60405180910390f35b6001818154811061021457600080fd5b90600052602060002090600502016000915090508060000160009054906101000a900473ffffffffffffffffffffffffffffffffffffffff169080600101805461025d906113a7565b80601f0160208091040260200160405190810160405280929190818152602001828054610289906113a7565b80156102d65780601f106102ab576101008083540402835291602001916102d6565b820191906000526020600020905b8154815290600101906020018083116102b957829003601f168201915b5050505050908060020180546102eb906113a7565b80601f0160208091040260200160405190810160405280929190818152602001828054610317906113a7565b80156103645780601f1061033957610100808354040283529160200191610364565b820191906000526020600020905b81548152906001019060200180831161034757829003601f168201915b5050505050908060030154908060040160009054906101000a900460ff16908060040160019054906101000a900460ff16905086565b600281815481106103aa57600080fd5b906000526020600020016000915054906101000a900473ffffffffffffffffffffffffffffffffffffffff1681565b60008054906101000a900473ffffffffffffffffffffffffffffffffffffffff1673ffffffffffffffffffffffffffffffffffffffff163373ffffffffffffffffffffffffffffffffffffffff1614610467576040517f08c379a000000000000000000000000000000000000000000000000000000000815260040161045e90611424565b60405180910390fd5b60006001828154811061047d5761047c611444565b5b906000526020600020906005020190508060040160009054906101000a900460ff161580156104bb57508060040160019054906101000a900460ff16155b6104fa576040517f08c379a00000000000000000000000000000000000000000000000000000000081526004016104f1906114bf565b60405180910390fd5b60008160010182600201836003015460405161051590610c4f565b61052193929190611578565b604051809103906000f08015801561053d573d6000803e3d6000fd5b5090506002819080600181540180825580915050600190039060005260206000200160009091909190916101000a81548173ffffffffffffffffffffffffffffffffffffffff021916908373ffffffffffffffffffffffffffffffffffffffff16021790555060018260040160006101000a81548160ff021916908315150217905550827f7145cba14b5acc8eccaa45e172fd347a0a11b8952bfff9af0dd5d9aac9ae0665826040516105f0919061135d565b60405180910390a2505050565b60606001805480602002602001604051908101604052809291908181526020016000905b8282101561080d57838290600052602060002090600502016040518060c00160405290816000820160009054906101000a900473ffffffffffffffffffffffffffffffffffffffff1673ffffffffffffffffffffffffffffffffffffffff1673ffffffffffffffffffffffffffffffffffffffff1681526020016001820180546106aa906113a7565b80601f01602080910402602001604051908101604052809291908181526020018280546106d6906113a7565b80156107235780601f106106f857610100808354040283529160200191610723565b820191906000526020600020905b81548152906001019060200180831161070657829003601f168201915b5050505050815260200160028201805461073c906113a7565b80601f0160208091040260200160405190810160405280929190818152602001828054610768906113a7565b80156107b55780601f1061078a576101008083540402835291602001916107b5565b820191906000526020600020905b81548152906001019060200180831161079857829003601f168201915b50505050508152602001600382015481526020016004820160009054906101000a900460ff161515151581526020016004820160019054906101000a900460ff16151515158152505081526020019060010190610621565b50505050905090565b6000600280549050905090565b606060028054806020026020016040519081016040528092919081815260200182805480156108a757602002820191906000526020600020905b8160009054906101000a900473ffffffffffffffffffffffffffffffffffffffff1673ffffffffffffffffffffffffffffffffffffffff168152602001906001019080831161085d575b5050505050905090565b60008054906101000a900473ffffffffffffffffffffffffffffffffffffffff1673ffffffffffffffffffffffffffffffffffffffff163373ffffffffffffffffffffffffffffffffffffffff161461093f576040517f08c379a000000000000000000000000000000000000000000000000000000000815260040161093690611424565b60405180910390fd5b60006001828154811061095557610954611444565b5b906000526020600020906005020190508060040160009054906101000a900460ff1615801561099357508060040160019054906101000a900460ff16155b6109d2576040517f08c379a00000000000000000000000000000000000000000000000000000000081526004016109c9906114bf565b60405180910390fd5b60018160040160016101000a81548160ff021916908315150217905550817fc3f451c8eba813b83ed73bf2904347fff970b9ca06227a6507f7e9cd971ff11360405160405180910390a25050565b60008111610a63576040517f08c379a0000000000000000000000000000000000000000000000000000000008152600401610a5a90611609565b60405180910390fd5b60016040518060c001604052803373ffffffffffffffffffffffffffffffffffffffff16815260200185815260200184815260200183815260200160001515815260200160001515815250908060018154018082558091505060019003906000526020600020906005020160009091909190915060008201518160000160006101000a81548173ffffffffffffffffffffffffffffffffffffffff021916908373ffffffffffffffffffffffffffffffffffffffff1602179055506020820151816001019081610b3391906117b6565b506040820151816002019081610b4991906117b6565b506060820151816003015560808201518160040160006101000a81548160ff02191690831515021790555060a08201518160040160016101000a81548160ff021916908315150217905550505060018080549050610ba791906118b7565b7f9314e6c84e6a50484b259fd4f65b3bdbd6a84508dfb051c39e1897269adf023733604051610bd6919061135d565b60405180910390a2505050565b600060028281548110610bf957610bf8611444565b5b9060005260206000200160009054906101000a900473ffffffffffffffffffffffffffffffffffffffff169050919050565b60008054906101000a900473ffffffffffffffffffffffffffffffffffffffff1681565b611b6f806118ec83390190565b6000604051905090565b600080fd5b600080fd5b6000819050919050565b610c8381610c70565b8114610c8e57600080fd5b50565b600081359050610ca081610c7a565b92915050565b600060208284031215610cbc57610cbb610c66565b5b6000610cca84828501610c91565b91505092915050565b600073ffffffffffffffffffffffffffffffffffffffff82169050919050565b6000610cfe82610cd3565b9050919050565b610d0e81610cf3565b82525050565b600081519050919050565b600082825260208201905092915050565b60005b83811015610d4e578082015181840152602081019050610d33565b60008484015250505050565b6000601f19601f8301169050919050565b6000610d7682610d14565b610d808185610d1f565b9350610d90818560208601610d30565b610d9981610d5a565b840191505092915050565b610dad81610c70565b82525050565b60008115159050919050565b610dc881610db3565b82525050565b600060c082019050610de36000830189610d05565b8181036020830152610df58188610d6b565b90508181036040830152610e098187610d6b565b9050610e186060830186610da4565b610e256080830185610dbf565b610e3260a0830184610dbf565b979650505050505050565b6000819050919050565b6000610e62610e5d610e5884610cd3565b610e3d565b610cd3565b9050919050565b6000610e7482610e47565b9050919050565b6000610e8682610e69565b9050919050565b610e9681610e7b565b82525050565b6000602082019050610eb16000830184610e8d565b92915050565b600081519050919050565b600082825260208201905092915050565b6000819050602082019050919050565b610eec81610cf3565b82525050565b600082825260208201905092915050565b6000610f0e82610d14565b610f188185610ef2565b9350610f28818560208601610d30565b610f3181610d5a565b840191505092915050565b610f4581610c70565b82525050565b610f5481610db3565b82525050565b600060c083016000830151610f726000860182610ee3565b5060208301518482036020860152610f8a8282610f03565b91505060408301518482036040860152610fa48282610f03565b9150506060830151610fb96060860182610f3c565b506080830151610fcc6080860182610f4b565b5060a0830151610fdf60a0860182610f4b565b508091505092915050565b6000610ff68383610f5a565b905092915050565b6000602082019050919050565b600061101682610eb7565b6110208185610ec2565b93508360208202850161103285610ed3565b8060005b8581101561106e578484038952815161104f8582610fea565b945061105a83610ffe565b925060208a01995050600181019050611036565b50829750879550505050505092915050565b6000602082019050818103600083015261109a818461100b565b905092915050565b60006020820190506110b76000830184610da4565b92915050565b600081519050919050565b600082825260208201905092915050565b6000819050602082019050919050565b6110f281610e7b565b82525050565b600061110483836110e9565b60208301905092915050565b6000602082019050919050565b6000611128826110bd565b61113281856110c8565b935061113d836110d9565b8060005b8381101561116e57815161115588826110f8565b975061116083611110565b925050600181019050611141565b5085935050505092915050565b60006020820190508181036000830152611195818461111d565b905092915050565b600080fd5b600080fd5b7f4e487b7100000000000000000000000000000000000000000000000000000000600052604160045260246000fd5b6111df82610d5a565b810181811067ffffffffffffffff821117156111fe576111fd6111a7565b5b80604052505050565b6000611211610c5c565b905061121d82826111d6565b919050565b600067ffffffffffffffff82111561123d5761123c6111a7565b5b61124682610d5a565b9050602081019050919050565b82818337600083830152505050565b600061127561127084611222565b611207565b905082815260208101848484011115611291576112906111a2565b5b61129c848285611253565b509392505050565b600082601f8301126112b9576112b861119d565b5b81356112c9848260208601611262565b91505092915050565b6000806000606084860312156112eb576112ea610c66565b5b600084013567ffffffffffffffff81111561130957611308610c6b565b5b611315868287016112a4565b935050602084013567ffffffffffffffff81111561133657611335610c6b565b5b611342868287016112a4565b925050604061135386828701610c91565b9150509250925092565b60006020820190506113726000830184610d05565b92915050565b7f4e487b7100000000000000000000000000000000000000000000000000000000600052602260045260246000fd5b600060028204905060018216806113bf57607f821691505b6020821081036113d2576113d1611378565b5b50919050565b7f446f61722061646d696e756c20706f6174652066616365206173746100000000600082015250565b600061140e601c83610d1f565b9150611419826113d8565b602082019050919050565b6000602082019050818103600083015261143d81611401565b9050919050565b7f4e487b7100000000000000000000000000000000000000000000000000000000600052603260045260246000fd5b7f44656a612070726f636573617400000000000000000000000000000000000000600082015250565b60006114a9600d83610d1f565b91506114b482611473565b602082019050919050565b600060208201905081810360008301526114d88161149c565b9050919050565b60008190508160005260206000209050919050565b60008154611501816113a7565b61150b8186610d1f565b94506001821660008114611526576001811461153c5761156f565b60ff19831686528115156020028601935061156f565b611545856114df565b60005b8381101561156757815481890152600182019150602081019050611548565b808801955050505b50505092915050565b6000606082019050818103600083015261159281866114f4565b905081810360208301526115a681856114f4565b90506115b56040830184610da4565b949350505050565b7f53756d6120747265627569652073612066696520706f7a697469766100000000600082015250565b60006115f3601c83610d1f565b91506115fe826115bd565b602082019050919050565b60006020820190508181036000830152611622816115e6565b9050919050565b60006020601f8301049050919050565b600082821b905092915050565b6000600883026116767fffffffffffffffffffffffffffffffffffffffffffffffffffffffffffffffff82611639565b6116808683611639565b95508019841693508086168417925050509392505050565b60006116b36116ae6116a984610c70565b610e3d565b610c70565b9050919050565b6000819050919050565b6116cd83611698565b6116e16116d9826116ba565b848454611646565b825550505050565b600090565b6116f66116e9565b6117018184846116c4565b505050565b5b818110156117255761171a6000826116ee565b600181019050611707565b5050565b601f82111561176a5761173b816114df565b61174484611629565b81016020851015611753578190505b61176761175f85611629565b830182611706565b50505b505050565b600082821c905092915050565b600061178d6000198460080261176f565b1980831691505092915050565b60006117a6838361177c565b9150826002028217905092915050565b6117bf82610d14565b67ffffffffffffffff8111156117d8576117d76111a7565b5b6117e282546113a7565b6117ed828285611729565b600060209050601f831160018114611820576000841561180e578287015190505b611818858261179a565b865550611880565b601f19841661182e866114df565b60005b8281101561185657848901518255600182019150602085019450602081019050611831565b86831015611873578489015161186f601f89168261177c565b8355505b6001600288020188555050505b505050505050565b7f4e487b7100000000000000000000000000000000000000000000000000000000600052601160045260246000fd5b60006118c282610c70565b91506118cd83610c70565b92508282039050818111156118e5576118e4611888565b5b9291505056fe608060405234801561001057600080fd5b50604051611b6f380380611b6f833981810160405281019061003291906102cd565b60008111610075576040517f08c379a000000000000000000000000000000000000000000000000000000000815260040161006c906103b5565b60405180910390fd5b826000908161008491906105ec565b50816001908161009491906105ec565b508060038190555033600260006101000a81548173ffffffffffffffffffffffffffffffffffffffff021916908373ffffffffffffffffffffffffffffffffffffffff160217905550426005819055506000600660006101000a81548160ff0219169083151502179055506000600660016101000a81548160ff0219169083151502179055505050506106be565b6000604051905090565b600080fd5b600080fd5b600080fd5b600080fd5b6000601f19601f8301169050919050565b7f4e487b7100000000000000000000000000000000000000000000000000000000600052604160045260246000fd5b61018982610140565b810181811067ffffffffffffffff821117156101a8576101a7610151565b5b80604052505050565b60006101bb610122565b90506101c78282610180565b919050565b600067ffffffffffffffff8211156101e7576101e6610151565b5b6101f082610140565b9050602081019050919050565b60005b8381101561021b578082015181840152602081019050610200565b60008484015250505050565b600061023a610235846101cc565b6101b1565b9050828152602081018484840111156102565761025561013b565b5b6102618482856101fd565b509392505050565b600082601f83011261027e5761027d610136565b5b815161028e848260208601610227565b91505092915050565b6000819050919050565b6102aa81610297565b81146102b557600080fd5b50565b6000815190506102c7816102a1565b92915050565b6000806000606084860312156102e6576102e561012c565b5b600084015167ffffffffffffffff81111561030457610303610131565b5b61031086828701610269565b935050602084015167ffffffffffffffff81111561033157610330610131565b5b61033d86828701610269565b925050604061034e868287016102b8565b9150509250925092565b600082825260208201905092915050565b7f50726167756c20747265627569652073612066696520706f7a69746976000000600082015250565b600061039f601d83610358565b91506103aa82610369565b602082019050919050565b600060208201905081810360008301526103ce81610392565b9050919050565b600081519050919050565b7f4e487b7100000000000000000000000000000000000000000000000000000000600052602260045260246000fd5b6000600282049050600182168061042757607f821691505b60208210810361043a576104396103e0565b5b50919050565b60008190508160005260206000209050919050565b60006020601f8301049050919050565b600082821b905092915050565b6000600883026104a27fffffffffffffffffffffffffffffffffffffffffffffffffffffffffffffffff82610465565b6104ac8683610465565b95508019841693508086168417925050509392505050565b6000819050919050565b60006104e96104e46104df84610297565b6104c4565b610297565b9050919050565b6000819050919050565b610503836104ce565b61051761050f826104f0565b848454610472565b825550505050565b600090565b61052c61051f565b6105378184846104fa565b505050565b5b8181101561055b57610550600082610524565b60018101905061053d565b5050565b601f8211156105a05761057181610440565b61057a84610455565b81016020851015610589578190505b61059d61059585610455565b83018261053c565b50505b505050565b600082821c905092915050565b60006105c3600019846008026105a5565b1980831691505092915050565b60006105dc83836105b2565b9150826002028217905092915050565b6105f5826103d5565b67ffffffffffffffff81111561060e5761060d610151565b5b610618825461040f565b61062382828561055f565b600060209050601f8311600181146106565760008415610644578287015190505b61064e85826105d0565b8655506106b6565b601f19841661066486610440565b60005b8281101561068c57848901518255600182019150602085019450602081019050610667565b868310156106a957848901516106a5601f8916826105b2565b8355505b6001600288020188555050505b505050505050565b6114a2806106cd6000396000f3fe6080604052600436106100e15760003560e01c8063a1211bc01161007f578063cf09e0d011610059578063cf09e0d01461027e578063ed88c68e146102a9578063f0ea4bfc146102b3578063fbbf93a0146102de576100f0565b8063a1211bc014610211578063b3f05b9714610228578063c80ec52214610253576100f0565b80634a79d50c116100bb5780634a79d50c14610179578063590e1ae3146101a45780637284e416146101bb5780638da5cb5b146101e6576100f0565b80633ccfd60b146100fa578063401938831461011157806342e94c901461013c576100f0565b366100f0576100ee61030f565b005b6100f861030f565b005b34801561010657600080fd5b5061010f610461565b005b34801561011d57600080fd5b506101266106d3565b6040516101339190610d31565b60405180910390f35b34801561014857600080fd5b50610163600480360381019061015e9190610daf565b6106d9565b6040516101709190610d31565b60405180910390f35b34801561018557600080fd5b5061018e6106f1565b60405161019b9190610e6c565b60405180910390f35b3480156101b057600080fd5b506101b961077f565b005b3480156101c757600080fd5b506101d0610978565b6040516101dd9190610e6c565b60405180910390f35b3480156101f257600080fd5b506101fb610a06565b6040516102089190610e9d565b60405180910390f35b34801561021d57600080fd5b50610226610a2c565b005b34801561023457600080fd5b5061023d610b6d565b60405161024a9190610ed3565b60405180910390f35b34801561025f57600080fd5b50610268610b80565b6040516102759190610ed3565b60405180910390f35b34801561028a57600080fd5b50610293610b93565b6040516102a09190610d31565b60405180910390f35b6102b161030f565b005b3480156102bf57600080fd5b506102c8610b99565b6040516102d59190610d31565b60405180910390f35b3480156102ea57600080fd5b506102f3610b9f565b6040516103069796959493929190610eee565b60405180910390f35b600660009054906101000a900460ff161561035f576040517f08c379a000000000000000000000000000000000000000000000000000000000815260040161035690610fb7565b60405180910390fd5b600034116103a2576040517f08c379a000000000000000000000000000000000000000000000000000000000815260040161039990611049565b60405180910390fd5b34600760003373ffffffffffffffffffffffffffffffffffffffff1673ffffffffffffffffffffffffffffffffffffffff16815260200190815260200160002060008282546103f19190611098565b92505081905550346004600082825461040a9190611098565b925050819055503373ffffffffffffffffffffffffffffffffffffffff167f264f630d9efa0d07053a31163641d9fcc0adafc9d9e76f1c37c2ce3a558d2c52346040516104579190610d31565b60405180910390a2565b600260009054906101000a900473ffffffffffffffffffffffffffffffffffffffff1673ffffffffffffffffffffffffffffffffffffffff163373ffffffffffffffffffffffffffffffffffffffff16146104f1576040517f08c379a00000000000000000000000000000000000000000000000000000000081526004016104e890611118565b60405180910390fd5b600660009054906101000a900460ff16610540576040517f08c379a000000000000000000000000000000000000000000000000000000000815260040161053790611184565b60405180910390fd5b6003546004541015610587576040517f08c379a000000000000000000000000000000000000000000000000000000000815260040161057e906111f0565b60405180910390fd5b600660019054906101000a900460ff16156105d7576040517f08c379a00000000000000000000000000000000000000000000000000000000081526004016105ce9061125c565b60405180910390fd5b6001600660016101000a81548160ff0219169083151502179055506000479050600260009054906101000a900473ffffffffffffffffffffffffffffffffffffffff1673ffffffffffffffffffffffffffffffffffffffff166108fc829081150290604051600060405180830381858888f1935050505015801561065f573d6000803e3d6000fd5b50600260009054906101000a900473ffffffffffffffffffffffffffffffffffffffff1673ffffffffffffffffffffffffffffffffffffffff167feaff4b37086828766ad3268786972c0cd24259d4c87a80f9d3963a3c3d999b0d826040516106c89190610d31565b60405180910390a250565b60035481565b60076020528060005260406000206000915090505481565b600080546106fe906112ab565b80601f016020809104026020016040519081016040528092919081815260200182805461072a906112ab565b80156107775780601f1061074c57610100808354040283529160200191610777565b820191906000526020600020905b81548152906001019060200180831161075a57829003601f168201915b505050505081565b600660009054906101000a900460ff166107ce576040517f08c379a00000000000000000000000000000000000000000000000000000000081526004016107c590611184565b60405180910390fd5b60035460045410610814576040517f08c379a000000000000000000000000000000000000000000000000000000000815260040161080b9061134e565b60405180910390fd5b6000600760003373ffffffffffffffffffffffffffffffffffffffff1673ffffffffffffffffffffffffffffffffffffffff1681526020019081526020016000205490506000811161089b576040517f08c379a0000000000000000000000000000000000000000000000000000000008152600401610892906113e0565b60405180910390fd5b6000600760003373ffffffffffffffffffffffffffffffffffffffff1673ffffffffffffffffffffffffffffffffffffffff168152602001908152602001600020819055503373ffffffffffffffffffffffffffffffffffffffff166108fc829081150290604051600060405180830381858888f19350505050158015610926573d6000803e3d6000fd5b503373ffffffffffffffffffffffffffffffffffffffff167fa171b6942063c6f2800ce40a780edce37baa2b618571b11eedd1e69e626e7d768260405161096d9190610d31565b60405180910390a250565b60018054610985906112ab565b80601f01602080910402602001604051908101604052809291908181526020018280546109b1906112ab565b80156109fe5780601f106109d3576101008083540402835291602001916109fe565b820191906000526020600020905b8154815290600101906020018083116109e157829003601f168201915b505050505081565b600260009054906101000a900473ffffffffffffffffffffffffffffffffffffffff1681565b600260009054906101000a900473ffffffffffffffffffffffffffffffffffffffff1673ffffffffffffffffffffffffffffffffffffffff163373ffffffffffffffffffffffffffffffffffffffff1614610abc576040517f08c379a0000000000000000000000000000000000000000000000000000000008152600401610ab390611118565b60405180910390fd5b600660009054906101000a900460ff1615610b0c576040517f08c379a0000000000000000000000000000000000000000000000000000000008152600401610b039061144c565b60405180910390fd5b6001600660006101000a81548160ff0219169083151502179055506000600354600454101590507f170c266b6c51c5ee0e58a9ff23f733b295ff6c6b28f3c61a2ed3dc74a0902f2d81604051610b629190610ed3565b60405180910390a150565b600660009054906101000a900460ff1681565b600660019054906101000a900460ff1681565b60055481565b60045481565b6060806000806000806000806001600260009054906101000a900473ffffffffffffffffffffffffffffffffffffffff16600354600454600554600660009054906101000a900460ff16868054610bf5906112ab565b80601f0160208091040260200160405190810160405280929190818152602001828054610c21906112ab565b8015610c6e5780601f10610c4357610100808354040283529160200191610c6e565b820191906000526020600020905b815481529060010190602001808311610c5157829003601f168201915b50505050509650858054610c81906112ab565b80601f0160208091040260200160405190810160405280929190818152602001828054610cad906112ab565b8015610cfa5780601f10610ccf57610100808354040283529160200191610cfa565b820191906000526020600020905b815481529060010190602001808311610cdd57829003601f168201915b50505050509550965096509650965096509650965090919293949596565b6000819050919050565b610d2b81610d18565b82525050565b6000602082019050610d466000830184610d22565b92915050565b600080fd5b600073ffffffffffffffffffffffffffffffffffffffff82169050919050565b6000610d7c82610d51565b9050919050565b610d8c81610d71565b8114610d9757600080fd5b50565b600081359050610da981610d83565b92915050565b600060208284031215610dc557610dc4610d4c565b5b6000610dd384828501610d9a565b91505092915050565b600081519050919050565b600082825260208201905092915050565b60005b83811015610e16578082015181840152602081019050610dfb565b60008484015250505050565b6000601f19601f8301169050919050565b6000610e3e82610ddc565b610e488185610de7565b9350610e58818560208601610df8565b610e6181610e22565b840191505092915050565b60006020820190508181036000830152610e868184610e33565b905092915050565b610e9781610d71565b82525050565b6000602082019050610eb26000830184610e8e565b92915050565b60008115159050919050565b610ecd81610eb8565b82525050565b6000602082019050610ee86000830184610ec4565b92915050565b600060e0820190508181036000830152610f08818a610e33565b90508181036020830152610f1c8189610e33565b9050610f2b6040830188610e8e565b610f386060830187610d22565b610f456080830186610d22565b610f5260a0830185610d22565b610f5f60c0830184610ec4565b98975050505050505050565b7f43616d70616e6961206120666f73742066696e616c697a617461000000000000600082015250565b6000610fa1601a83610de7565b9150610fac82610f6b565b602082019050919050565b60006020820190508181036000830152610fd081610f94565b9050919050565b7f446f6e61746961207472656275696520736120666965206d6169206d6172652060008201527f6465636174207a65726f00000000000000000000000000000000000000000000602082015250565b6000611033602a83610de7565b915061103e82610fd7565b604082019050919050565b6000602082019050818103600083015261106281611026565b9050919050565b7f4e487b7100000000000000000000000000000000000000000000000000000000600052601160045260246000fd5b60006110a382610d18565b91506110ae83610d18565b92508282019050808211156110c6576110c5611069565b5b92915050565b7f446f61722070726f70726965746172756c20706f617465206170656c61000000600082015250565b6000611102601d83610de7565b915061110d826110cc565b602082019050919050565b60006020820190508181036000830152611131816110f5565b9050919050565b7f43616d70616e6961206e7520657374652066696e616c697a6174610000000000600082015250565b600061116e601b83610de7565b915061117982611138565b602082019050919050565b6000602082019050818103600083015261119d81611161565b9050919050565b7f5461726765742d756c206e75206120666f7374206174696e7300000000000000600082015250565b60006111da601983610de7565b91506111e5826111a4565b602082019050919050565b60006020820190508181036000830152611209816111cd565b9050919050565b7f466f6e647572696c6520617520666f73742064656a6120726574726173650000600082015250565b6000611246601e83610de7565b915061125182611210565b602082019050919050565b6000602082019050818103600083015261127581611239565b9050919050565b7f4e487b7100000000000000000000000000000000000000000000000000000000600052602260045260246000fd5b600060028204905060018216806112c357607f821691505b6020821081036112d6576112d561127c565b5b50919050565b7f5461726765742d756c206120666f7374206174696e732c206e7520736520706f60008201527f7420666163652072616d62757273617269000000000000000000000000000000602082015250565b6000611338603183610de7565b9150611343826112dc565b604082019050919050565b600060208201905081810360008301526113678161132b565b9050919050565b7f4e752065786973746120636f6e74726962757469692064652072616d6275727360008201527f6174000000000000000000000000000000000000000000000000000000000000602082015250565b60006113ca602283610de7565b91506113d58261136e565b604082019050919050565b600060208201905081810360008301526113f9816113bd565b9050919050565b7f43616d70616e696120657374652064656a612066696e616c697a617461000000600082015250565b6000611436601d83610de7565b915061144182611400565b602082019050919050565b6000602082019050818103600083015261146581611429565b905091905056fea264697066735822122012f49012605d804fddb1a4a428cf1d53219142e7e1daf4f6767eb0507735eec364736f6c634300081c0033a264697066735822122084bbd3819b9a72ef8c664ab7c400606d8b848e93bf486126f1d5460c547a606164736f6c634300081c0033",
  "linkReferences": {},
  "deployedLinkReferences": {}
}