{
  "_format": "hh-sol-artifact-1",
  "contractName": "DonationCampaign",
  "sourceName": "contracts/DonationCampaign.sol",
  "abi": [
    {
      "inputs": [
        {
          "internalType": "string",
          "name": "_title",
          "type": "string"
        },
        {
          "internalType": "string",
          "name": "_description",
          "type": "string"
        },
        {
          "internalType": "string",
          "name": "_category",
          "type": "string"
        },
        {
          "internalType": "address",
          "name": "_creator",
          "type": "address"
        },
        {
          "internalType": "uint256",
          "name": "_goal",
          "type": "uint256"
        }
      ],
      "stateMutability": "nonpayable",
      "type": "constructor"
    },
    {
      "anonymous": false,
      "inputs": [
        {
          "indexed": false,
          "internalType": "uint256",
          "name": "totalRaised",
          "type": "uint256"
        }
      ],
      "name": "CampaignFinalized",
      "type": "event"
    },
    {
      "anonymous": false,
      "inputs": [
        {
          "indexed": true,
          "internalType": "address",
          "name": "donor",
          "type": "address"
        },
        {
          "indexed": false,
          "internalType": "uint256",
          "name": "amount",
          "type": "uint256"
        },
        {
          "indexed": false,
          "internalType": "string",
          "name": "donorName",
          "type": "string"
        },
        {
          "indexed": false,
          "internalType": "string",
          "name": "donorEmail",
          "type": "string"
        },
        {
          "indexed": false,
          "internalType": "uint256",
          "name": "timestamp",
          "type": "uint256"
        }
      ],
      "name": "DonationReceived",
      "type": "event"
    },
    {
      "inputs": [],
      "name": "category",
      "outputs": [
        {
          "internalType": "string",
          "name": "",
          "type": "string"
        }
      ],
      "stateMutability": "view",
      "type": "function"
    },
    {
      "inputs": [],
      "name": "createdAt",
      "outputs": [
        {
          "internalType": "uint256",
          "name": "",
          "type": "uint256"
        }
      ],
      "stateMutability": "view",
      "type": "function"
    },
    {
      "inputs": [],
      "name": "creator",
      "outputs": [
        {
          "internalType": "address",
          "name": "",
          "type": "address"
        }
      ],
      "stateMutability": "view",
      "type": "function"
    },
    {
      "inputs": [],
      "name": "description",
      "outputs": [
        {
          "internalType": "string",
          "name": "",
          "type": "string"
        }
      ],
      "stateMutability": "view",
      "type": "function"
    },
    {
      "inputs": [
        {
          "internalType": "string",
          "name": "_donorName",
          "type": "string"
        },
        {
          "internalType": "string",
          "name": "_donorEmail",
          "type": "string"
        }
      ],
      "name": "donate",
      "outputs": [],
      "stateMutability": "payable",
      "type": "function"
    },
    {
      "inputs": [
        {
          "internalType": "uint256",
          "name": "",
          "type": "uint256"
        }
      ],
      "name": "donations",
      "outputs": [
        {
          "internalType": "address",
          "name": "donor",
          "type": "address"
        },
        {
          "internalType": "uint256",
          "name": "amount",
          "type": "uint256"
        },
        {
          "internalType": "string",
          "name": "donorName",
          "type": "string"
        },
        {
          "internalType": "string",
          "name": "donorEmail",
          "type": "string"
        },
        {
          "internalType": "uint256",
          "name": "timestamp",
          "type": "uint256"
        }
      ],
      "stateMutability": "view",
      "type": "function"
    },
    {
      "inputs": [
        {
          "internalType": "address",
          "name": "",
          "type": "address"
        }
      ],
      "name": "donorContributions",
      "outputs": [
        {
          "internalType": "uint256",
          "name": "",
          "type": "uint256"
        }
      ],
      "stateMutability": "view",
      "type": "function"
    },
    {
      "inputs": [],
      "name": "finalizeCampaign",
      "outputs": [],
      "stateMutability": "nonpayable",
      "type": "function"
    },
    {
      "inputs": [],
      "name": "finalized",
      "outputs": [
        {
          "internalType": "bool",
          "name": "",
          "type": "bool"
        }
      ],
      "stateMutability": "view",
      "type": "function"
    },
    {
      "inputs": [],
      "name": "getDetails",
      "outputs": [
        {
          "internalType": "string",
          "name": "",
          "type": "string"
        },
        {
          "internalType": "string",
          "name": "",
          "type": "string"
        },
        {
          "internalType": "string",
          "name": "",
          "type": "string"
        },
        {
          "internalType": "address",
          "name": "",
          "type": "address"
        },
        {
          "internalType": "uint256",
          "name": "",
          "type": "uint256"
        },
        {
          "internalType": "uint256",
          "name": "",
          "type": "uint256"
        },
        {
          "internalType": "bool",
          "name": "",
          "type": "bool"
        }
      ],
      "stateMutability": "view",
      "type": "function"
    },
    {
      "inputs": [],
      "name": "goal",
      "outputs": [
        {
          "internalType": "uint256",
          "name": "",
          "type": "uint256"
        }
      ],
      "stateMutability": "view",
      "type": "function"
    },
    {
      "inputs": [],
      "name": "raised",
      "outputs": [
        {
          "internalType": "uint256",
          "name": "",
          "type": "uint256"
        }
      ],
      "stateMutability": "view",
      "type": "function"
    },
    {
      "inputs": [],
      "name": "title",
      "outputs": [
        {
          "internalType": "string",
          "name": "",
          "type": "string"
        }
      ],
      "stateMutability": "view",
      "type": "function"
    }
  ],
  "bytecode": "0x608060405234801561001057600080fd5b5060405161225a38038061225a833981810160405281019061003291906103fd565b60008111610075576040517f08c379a000000000000000000000000000000000000000000000000000000000815260040161006c9061054f565b60405180910390fd5b60008551116100b9576040517f08c379a00000000000000000000000000000000000000000000000000000000081526004016100b0906105bb565b60405180910390fd5b600073ffffffffffffffffffffffffffffffffffffffff168273ffffffffffffffffffffffffffffffffffffffff1603610128576040517f08c379a000000000000000000000000000000000000000000000000000000000815260040161011f90610627565b60405180910390fd5b600083511161016c576040517f08c379a000000000000000000000000000000000000000000000000000000000815260040161016390610693565b60405180910390fd5b846001908161017b91906108ca565b50836002908161018b91906108ca565b50826003908161019b91906108ca565b50816000806101000a81548173ffffffffffffffffffffffffffffffffffffffff021916908373ffffffffffffffffffffffffffffffffffffffff1602179055508060048190555042600681905550505050505061099c565b6000604051905090565b600080fd5b600080fd5b600080fd5b600080fd5b6000601f19601f8301169050919050565b7f4e487b7100000000000000000000000000000000000000000000000000000000600052604160045260246000fd5b61025b82610212565b810181811067ffffffffffffffff8211171561027a57610279610223565b5b80604052505050565b600061028d6101f4565b90506102998282610252565b919050565b600067ffffffffffffffff8211156102b9576102b8610223565b5b6102c282610212565b9050602081019050919050565b60005b838110156102ed5780820151818401526020810190506102d2565b60008484015250505050565b600061030c6103078461029e565b610283565b9050828152602081018484840111156103285761032761020d565b5b6103338482856102cf565b509392505050565b600082601f8301126103505761034f610208565b5b81516103608482602086016102f9565b91505092915050565b600073ffffffffffffffffffffffffffffffffffffffff82169050919050565b600061039482610369565b9050919050565b6103a481610389565b81146103af57600080fd5b50565b6000815190506103c18161039b565b92915050565b6000819050919050565b6103da816103c7565b81146103e557600080fd5b50565b6000815190506103f7816103d1565b92915050565b600080600080600060a08688031215610419576104186101fe565b5b600086015167ffffffffffffffff81111561043757610436610203565b5b6104438882890161033b565b955050602086015167ffffffffffffffff81111561046457610463610203565b5b6104708882890161033b565b945050604086015167ffffffffffffffff81111561049157610490610203565b5b61049d8882890161033b565b93505060606104ae888289016103b2565b92505060806104bf888289016103e8565b9150509295509295909350565b600082825260208201905092915050565b7f4f62696563746976756c207472656275696520736120666965206d6169206d6160008201527f7265206465636174203000000000000000000000000000000000000000000000602082015250565b6000610539602a836104cc565b9150610544826104dd565b604082019050919050565b600060208201905081810360008301526105688161052c565b9050919050565b7f5469746c756c206e7520706f61746520666920676f6c00000000000000000000600082015250565b60006105a56016836104cc565b91506105b08261056f565b602082019050919050565b600060208201905081810360008301526105d481610598565b9050919050565b7f4164726573612063726561746f72756c7569206e7520706f6174652066692030600082015250565b60006106116020836104cc565b915061061c826105db565b602082019050919050565b6000602082019050818103600083015261064081610604565b9050919050565b7f43617465676f726961206e7520706f61746520666920676f616c610000000000600082015250565b600061067d601b836104cc565b915061068882610647565b602082019050919050565b600060208201905081810360008301526106ac81610670565b9050919050565b600081519050919050565b7f4e487b7100000000000000000000000000000000000000000000000000000000600052602260045260246000fd5b6000600282049050600182168061070557607f821691505b602082108103610718576107176106be565b5b50919050565b60008190508160005260206000209050919050565b60006020601f8301049050919050565b600082821b905092915050565b6000600883026107807fffffffffffffffffffffffffffffffffffffffffffffffffffffffffffffffff82610743565b61078a8683610743565b95508019841693508086168417925050509392505050565b6000819050919050565b60006107c76107c26107bd846103c7565b6107a2565b6103c7565b9050919050565b6000819050919050565b6107e1836107ac565b6107f56107ed826107ce565b848454610750565b825550505050565b600090565b61080a6107fd565b6108158184846107d8565b505050565b5b818110156108395761082e600082610802565b60018101905061081b565b5050565b601f82111561087e5761084f8161071e565b61085884610733565b81016020851015610867578190505b61087b61087385610733565b83018261081a565b50505b505050565b600082821c905092915050565b60006108a160001984600802610883565b1980831691505092915050565b60006108ba8383610890565b9150826002028217905092915050565b6108d3826106b3565b67ffffffffffffffff8111156108ec576108eb610223565b5b6108f682546106ed565b61090182828561083d565b600060209050601f8311600181146109345760008415610922578287015190505b61092c85826108ae565b865550610994565b601f1984166109428661071e565b60005b8281101561096a57848901518255600182019150602085019450602081019050610945565b868310156109875784890151610983601f891682610890565b8355505b6001600288020188555050505b505050505050565b6118af806109ab6000396000f3fe6080604052600436106100c25760003560e01c8063b3f05b971161007f578063f0ea4bfc11610059578063f0ea4bfc14610227578063f4374aea14610252578063f8626af81461028f578063fbbf93a0146102d0576100c2565b8063b3f05b97146101a6578063cf09e0d0146101d1578063ef430aa6146101fc576100c2565b806302d05d3f146100c75780631653441c146100f2578063401938831461010e5780634a79d50c146101395780637284e41614610164578063a1211bc01461018f575b600080fd5b3480156100d357600080fd5b506100dc610301565b6040516100e99190610da8565b60405180910390f35b61010c60048036038101906101079190610f1d565b610325565b005b34801561011a57600080fd5b506101236105ba565b6040516101309190610fae565b60405180910390f35b34801561014557600080fd5b5061014e6105c0565b60405161015b9190611048565b60405180910390f35b34801561017057600080fd5b5061017961064e565b6040516101869190611048565b60405180910390f35b34801561019b57600080fd5b506101a46106dc565b005b3480156101b257600080fd5b506101bb610929565b6040516101c89190611085565b60405180910390f35b3480156101dd57600080fd5b506101e661093c565b6040516101f39190610fae565b60405180910390f35b34801561020857600080fd5b50610211610942565b60405161021e9190611048565b60405180910390f35b34801561023357600080fd5b5061023c6109d0565b6040516102499190610fae565b60405180910390f35b34801561025e57600080fd5b50610279600480360381019061027491906110cc565b6109d6565b6040516102869190610fae565b60405180910390f35b34801561029b57600080fd5b506102b660048036038101906102b19190611125565b6109ee565b6040516102c7959493929190611152565b60405180910390f35b3480156102dc57600080fd5b506102e5610b64565b6040516102f897969594939291906111b3565b60405180910390f35b60008054906101000a900473ffffffffffffffffffffffffffffffffffffffff1681565b600760009054906101000a900460ff1615610375576040517f08c379a000000000000000000000000000000000000000000000000000000000815260040161036c90611283565b60405180910390fd5b600034116103b8576040517f08c379a00000000000000000000000000000000000000000000000000000000081526004016103af90611315565b60405180910390fd5b6000808351116103fd576040518060400160405280600681526020017f416e6f6e696d00000000000000000000000000000000000000000000000000008152506103ff565b825b905060086040518060a001604052803373ffffffffffffffffffffffffffffffffffffffff16815260200134815260200183815260200184815260200142815250908060018154018082558091505060019003906000526020600020906005020160009091909190915060008201518160000160006101000a81548173ffffffffffffffffffffffffffffffffffffffff021916908373ffffffffffffffffffffffffffffffffffffffff1602179055506020820151816001015560408201518160020190816104cf9190611541565b5060608201518160030190816104e59190611541565b5060808201518160040155505034600960003373ffffffffffffffffffffffffffffffffffffffff1673ffffffffffffffffffffffffffffffffffffffff16815260200190815260200160002060008282546105419190611642565b92505081905550346005600082825461055a9190611642565b925050819055503373ffffffffffffffffffffffffffffffffffffffff167f7bb9a95a063ac2decc66632337067989dec93c5602888bef33692d28f0bf91be348385426040516105ad9493929190611676565b60405180910390a2505050565b60045481565b600180546105cd90611364565b80601f01602080910402602001604051908101604052809291908181526020018280546105f990611364565b80156106465780601f1061061b57610100808354040283529160200191610646565b820191906000526020600020905b81548152906001019060200180831161062957829003601f168201915b505050505081565b6002805461065b90611364565b80601f016020809104026020016040519081016040528092919081815260200182805461068790611364565b80156106d45780601f106106a9576101008083540402835291602001916106d4565b820191906000526020600020905b8154815290600101906020018083116106b757829003601f168201915b505050505081565b60008054906101000a900473ffffffffffffffffffffffffffffffffffffffff1673ffffffffffffffffffffffffffffffffffffffff163373ffffffffffffffffffffffffffffffffffffffff161461076a576040517f08c379a00000000000000000000000000000000000000000000000000000000081526004016107619061173b565b60405180910390fd5b600760009054906101000a900460ff16156107ba576040517f08c379a00000000000000000000000000000000000000000000000000000000081526004016107b190611283565b60405180910390fd5b6000600554116107ff576040517f08c379a00000000000000000000000000000000000000000000000000000000081526004016107f6906117a7565b60405180910390fd5b6001600760006101000a81548160ff021916908315150217905550600047905060008060009054906101000a900473ffffffffffffffffffffffffffffffffffffffff1673ffffffffffffffffffffffffffffffffffffffff1682604051610866906117f8565b60006040518083038185875af1925050503d80600081146108a3576040519150601f19603f3d011682016040523d82523d6000602084013e6108a8565b606091505b50509050806108ec576040517f08c379a00000000000000000000000000000000000000000000000000000000081526004016108e390611859565b60405180910390fd5b7f79e19121aa255cb066a0c009cb90dc7e4847878c99372edec7374527541c181460055460405161091d9190610fae565b60405180910390a15050565b600760009054906101000a900460ff1681565b60065481565b6003805461094f90611364565b80601f016020809104026020016040519081016040528092919081815260200182805461097b90611364565b80156109c85780601f1061099d576101008083540402835291602001916109c8565b820191906000526020600020905b8154815290600101906020018083116109ab57829003601f168201915b505050505081565b60055481565b60096020528060005260406000206000915090505481565b600881815481106109fe57600080fd5b90600052602060002090600502016000915090508060000160009054906101000a900473ffffffffffffffffffffffffffffffffffffffff1690806001015490806002018054610a4d90611364565b80601f0160208091040260200160405190810160405280929190818152602001828054610a7990611364565b8015610ac65780601f10610a9b57610100808354040283529160200191610ac6565b820191906000526020600020905b815481529060010190602001808311610aa957829003601f168201915b505050505090806003018054610adb90611364565b80601f0160208091040260200160405190810160405280929190818152602001828054610b0790611364565b8015610b545780601f10610b2957610100808354040283529160200191610b54565b820191906000526020600020905b815481529060010190602001808311610b3757829003601f168201915b5050505050908060040154905085565b606080606060008060008060016002600360008054906101000a900473ffffffffffffffffffffffffffffffffffffffff16600454600554600760009054906101000a900460ff16868054610bb890611364565b80601f0160208091040260200160405190810160405280929190818152602001828054610be490611364565b8015610c315780601f10610c0657610100808354040283529160200191610c31565b820191906000526020600020905b815481529060010190602001808311610c1457829003601f168201915b50505050509650858054610c4490611364565b80601f0160208091040260200160405190810160405280929190818152602001828054610c7090611364565b8015610cbd5780601f10610c9257610100808354040283529160200191610cbd565b820191906000526020600020905b815481529060010190602001808311610ca057829003601f168201915b50505050509550848054610cd090611364565b80601f0160208091040260200160405190810160405280929190818152602001828054610cfc90611364565b8015610d495780601f10610d1e57610100808354040283529160200191610d49565b820191906000526020600020905b815481529060010190602001808311610d2c57829003601f168201915b50505050509450965096509650965096509650965090919293949596565b600073ffffffffffffffffffffffffffffffffffffffff82169050919050565b6000610d9282610d67565b9050919050565b610da281610d87565b82525050565b6000602082019050610dbd6000830184610d99565b92915050565b6000604051905090565b600080fd5b600080fd5b600080fd5b600080fd5b6000601f19601f8301169050919050565b7f4e487b7100000000000000000000000000000000000000000000000000000000600052604160045260246000fd5b610e2a82610de1565b810181811067ffffffffffffffff82111715610e4957610e48610df2565b5b80604052505050565b6000610e5c610dc3565b9050610e688282610e21565b919050565b600067ffffffffffffffff821115610e8857610e87610df2565b5b610e9182610de1565b9050602081019050919050565b82818337600083830152505050565b6000610ec0610ebb84610e6d565b610e52565b905082815260208101848484011115610edc57610edb610ddc565b5b610ee7848285610e9e565b509392505050565b600082601f830112610f0457610f03610dd7565b5b8135610f14848260208601610ead565b91505092915050565b60008060408385031215610f3457610f33610dcd565b5b600083013567ffffffffffffffff811115610f5257610f51610dd2565b5b610f5e85828601610eef565b925050602083013567ffffffffffffffff811115610f7f57610f7e610dd2565b5b610f8b85828601610eef565b9150509250929050565b6000819050919050565b610fa881610f95565b82525050565b6000602082019050610fc36000830184610f9f565b92915050565b600081519050919050565b600082825260208201905092915050565b60005b83811015611003578082015181840152602081019050610fe8565b60008484015250505050565b600061101a82610fc9565b6110248185610fd4565b9350611034818560208601610fe5565b61103d81610de1565b840191505092915050565b60006020820190508181036000830152611062818461100f565b905092915050565b60008115159050919050565b61107f8161106a565b82525050565b600060208201905061109a6000830184611076565b92915050565b6110a981610d87565b81146110b457600080fd5b50565b6000813590506110c6816110a0565b92915050565b6000602082840312156110e2576110e1610dcd565b5b60006110f0848285016110b7565b91505092915050565b61110281610f95565b811461110d57600080fd5b50565b60008135905061111f816110f9565b92915050565b60006020828403121561113b5761113a610dcd565b5b600061114984828501611110565b91505092915050565b600060a0820190506111676000830188610d99565b6111746020830187610f9f565b8181036040830152611186818661100f565b9050818103606083015261119a818561100f565b90506111a96080830184610f9f565b9695505050505050565b600060e08201905081810360008301526111cd818a61100f565b905081810360208301526111e1818961100f565b905081810360408301526111f5818861100f565b90506112046060830187610d99565b6112116080830186610f9f565b61121e60a0830185610f9f565b61122b60c0830184611076565b98975050505050505050565b7f43616d70616e696120657374652064656a612066696e616c697a617461000000600082015250565b600061126d601d83610fd4565b915061127882611237565b602082019050919050565b6000602082019050818103600083015261129c81611260565b9050919050565b7f53756d6120646f6e6174696569207472656275696520736120666965206d616960008201527f206d617265206465636174203000000000000000000000000000000000000000602082015250565b60006112ff602d83610fd4565b915061130a826112a3565b604082019050919050565b6000602082019050818103600083015261132e816112f2565b9050919050565b7f4e487b7100000000000000000000000000000000000000000000000000000000600052602260045260246000fd5b6000600282049050600182168061137c57607f821691505b60208210810361138f5761138e611335565b5b50919050565b60008190508160005260206000209050919050565b60006020601f8301049050919050565b600082821b905092915050565b6000600883026113f77fffffffffffffffffffffffffffffffffffffffffffffffffffffffffffffffff826113ba565b61140186836113ba565b95508019841693508086168417925050509392505050565b6000819050919050565b600061143e61143961143484610f95565b611419565b610f95565b9050919050565b6000819050919050565b61145883611423565b61146c61146482611445565b8484546113c7565b825550505050565b600090565b611481611474565b61148c81848461144f565b505050565b5b818110156114b0576114a5600082611479565b600181019050611492565b5050565b601f8211156114f5576114c681611395565b6114cf846113aa565b810160208510156114de578190505b6114f26114ea856113aa565b830182611491565b50505b505050565b600082821c905092915050565b6000611518600019846008026114fa565b1980831691505092915050565b60006115318383611507565b9150826002028217905092915050565b61154a82610fc9565b67ffffffffffffffff81111561156357611562610df2565b5b61156d8254611364565b6115788282856114b4565b600060209050601f8311600181146115ab5760008415611599578287015190505b6115a38582611525565b86555061160b565b601f1984166115b986611395565b60005b828110156115e1578489015182556001820191506020850194506020810190506115bc565b868310156115fe57848901516115fa601f891682611507565b8355505b6001600288020188555050505b505050505050565b7f4e487b7100000000000000000000000000000000000000000000000000000000600052601160045260246000fd5b600061164d82610f95565b915061165883610f95565b92508282019050808211156116705761166f611613565b5b92915050565b600060808201905061168b6000830187610f9f565b818103602083015261169d818661100f565b905081810360408301526116b1818561100f565b90506116c06060830184610f9f565b95945050505050565b7f446f61722063726561746f72756c20706f61746520657865637574612061636560008201527f617374612061637469756e650000000000000000000000000000000000000000602082015250565b6000611725602c83610fd4565b9150611730826116c9565b604082019050919050565b6000602082019050818103600083015261175481611718565b9050919050565b7f4e752065786973746120666f6e64757269206465207265747261730000000000600082015250565b6000611791601b83610fd4565b915061179c8261175b565b602082019050919050565b600060208201905081810360008301526117c081611784565b9050919050565b600081905092915050565b50565b60006117e26000836117c7565b91506117ed826117d2565b600082019050919050565b6000611803826117d5565b9150819050919050565b7f5472616e73666572756c20612065737561740000000000000000000000000000600082015250565b6000611843601283610fd4565b915061184e8261180d565b602082019050919050565b6000602082019050818103600083015261187281611836565b905091905056fea2646970667358221220fb696a3c845ceec736645acedae617081137bc0a00baee586a3e2a99ab6f3aa364736f6c634300081c0033",
  "linkReferences": {},
  "deployedLinkReferences": {}
}